:020000040800F2
:1000000000000220D9410008913E00089D3E0008F2
:10001000A53E0008AD3E0008B53E00080000000007
:10002000000000000000000000000000BD3E0008CD
:10003000C93E000800000000D53E0008E13E00086F
:1000400029420008294200082942000829420008E4
:100050002942000829420008ED3E00082942000814
:1000600029420008294200082942000829420008C4
:10007000F93E000829420008093F0008294200080B
:1000800029420008294200082942000829420008A4
:100090002942000829420008294200082942000894
:1000A0002942000829420008294200082942000884
:1000B0002942000829420008294200082942000874
:1000C000294200082942000829420008193F000877
:1000D000294200082942000829420008293F000857
:1000E0002942000829420008294200082942000844
:1000F0002942000829420008294200082942000834
:100100002942000829420008294200082942000823
:100110002942000829420008294200082942000813
:10012000393F00082942000829420008493F0008D9
:1001300029420008294200082942000829420008F3
:1001400029420008294200082942000829420008E3
:1001500029420008294200082942000829420008D3
:1001600029420008294200082942000829420008C3
:100170002942000829420008294200080000000026
:08018000294200082942000891
:10018800044B05481B1A062B02D9044B03B1184728
:10019800704700BF730000207000002000000000BE
:1001A80005490648091A891001EBD171491002D096
:1001B800034B03B1184770477000002070000020FF
:1001C8000000000010B5064C237843B9FFF7D8FFAC
:1001D800044B13B10448AFF300800123237010BD12
:1001E8007000002000000000B04A000808B5084B65
:1001F8001BB108480849AFF300800848036813B9E1
:10020800BDE80840CCE7064B002BF9D09847F7E744
:1002180000000000B04A00087400002070000020B0
:100228000000000053B94AB9002908BF00281CBFC4
:100238004FF0FF314FF0FF3000F03CB882B0EC4691
:100248002DE9005000F01EF8DDF804E002B00CBC07
:10025800704700BF2DE9F041069C154606460F463B
:10026800984600F029F805FB01F300FB0838A5FBC8
:100278000023B21A434467EB0303C4E90023BDE833
:10028800F08100BF2DE9F041069C904606460F46D6
:100298001D4600F05FF900FB05F5A0FB082308FBED
:1002A8000155B21A2B4467EB0303C4E90023BDE8E8
:1002B800F08100BF704700BF00292DE9F043C0F26C
:1002C800A6800026002BC0F29C80884694469E4655
:1002D800154604460F46002B3DD18A4259D9B2FA39
:1002E80082F33BB1C3F120029F4020FA02F29D4005
:1002F80017439C40290C220CB7FBF1FEA8B201FB66
:100308001E7742EA074700FB0EF3BB420AD97F1962
:100318000EF1FF3280F00581BB4240F20281AEF15E
:10032800020E2F44FF1AA4B2B7FBF1F301FB1377B7
:1003380044EA074700FB03F0B84208D97F1903F1E4
:10034800FF3280F0F080B84240F2ED80023B43EA91
:100358000E43002203E08B420FD900221346341CBF
:1003680018BF012460424FF0000565EB4501584075
:10037800514000196941BDE8F083B3FA83F2002ABD
:1003880040F086808B4202D3844500F2DB80012353
:10039800E5E712B90123B3FBF2F5B5FA85F00028B9
:1003A8003BD1781B4FEA154E1FFA85FC0122B0FBA2
:1003B800FEF8210C0EFB180741EA07470CFB08F36F
:1003C800BB4207D97F1908F1FF3102D2BB4200F2C4
:1003D800BD808846FF1AA4B2B7FBFEF30EFB137765
:1003E80044EA07470CFB03FCBC4507D97F1903F116
:1003F800FF3102D2BC4500F2A7800B4643EA08430E
:10040800ADE752426FEA060663EB43035DE74042FD
:1004180061EB41014FF0FF3654E7C0F1200224FAA6
:1004280002F107FA00F385404FEA154ED740194309
:10043800B7FBFEF20B0C0EFB12771FFA85FC43EAA2
:1004480007430CFB02F79F4204FA00F407D95B1933
:1004580002F1FF3074D29F4272D9023A2B44DF1B5B
:1004680089B2B7FBFEF80EFB187341EA03430CFB95
:1004780008F79F4208D95B1908F1FF315CD29F4207
:100488005AD9A8F102082B44D81B48EA02428EE741
:10049800C2F120032CFA03F10EFA02FE20FA03F748
:1004A80041EA0E0E08FA02F028FA03F14FEA1E4557
:1004B8003843B1FBF5F8030C05FB18111FFA8EF74A
:1004C80043EA014107FB08F38B420CFA02FC09D905
:1004D80011EB0E0108F1FF3930D28B422ED9A8F169
:1004E80002087144C91A80B2B1FBF5F305FB131178
:1004F80040EA014107FB03F78F4208D911EB0E01CF
:1005080003F1FF3016D28F4214D9023B714443EAFB
:100518000843C91BA3FB0C89494509D305D0002210
:100528001DE79646FEE6134611E794404445F6D289
:10053800013BF4E70346EAE78846A5E7C846D1E762
:1005480002468CE713460AE7023B57E7A8F1020880
:100558002F443FE72DE9F041002B44D18A4215464C
:1005680004464FD9B2FA82F70E464FB1C7F12003BD
:10057800B94020FA03F602FA07F50E4300FA07F429
:100588004FEA154E230CB6FBFEF0AFB20EFB10611E
:1005980043EA014307FB00F1994209D95B1900F1CD
:1005A800FF3280F0EC80994240F2E98002382B4417
:1005B8005A1AA4B2B2FBFEF30EFB132244EA02421B
:1005C80007FB03F7974208D9521903F1FF3180F06E
:1005D800D880974240F2D580023B43EA004000268B
:1005E8003146BDE8F0818B4247D8B3FA83F6002E36
:1005F80048D18B4202D3824200F2CD80012031469D
:10060800BDE8F08112B90125B5FBF2F5B5FA85F818
:10061800B8F1000F77D14A1B4FEA154EAFB2012649
:10062800B2FBFEF0230C0EFB102143EA014107FB4D
:1006380000F38B4207D9491900F1FF3202D28B42ED
:1006480000F2BA801046C91AA4B2B1FBFEF30EFB41
:10065800131144EA014407FB03F7A74208D96419B8
:1006680003F1FF3280F08F80A74240F28C80023B7A
:1006780043EA00403146BDE8F08100263046314665
:10068800BDE8F081C6F1200422FA04F5B3402B43FB
:1006980020FA04FC01FA06F721FA04F54FEA134E92
:1006A8004CEA0707B5FBFEF8390C0EFB18551FFA84
:1006B80083FC41EA05450CFB08F1A94202FA06F25F
:1006C80004D9ED1808F1FF3467D3A0466D1ABFB2FC
:1006D800B5FBFEF40EFB145547EA05410CFB04FC80
:1006E8008C4504D9C91804F1FF355CD32C4644EA7B
:1006F8000844CCEB0101A4FB0223994248D344D01F
:10070800204600266CE7C8F1200401FA08F305FA30
:1007180008F520FA04F7E1404FEA154E1F43B1FBF4
:10072800FEF63A0C0EFB16111FFA85FC42EA01434D
:100738000CFB06F29A4200FA08F407D95B1906F195
:10074800FF3137D29A4235D9023E2B449B1ABFB2A9
:10075800B3FBFEF00EFB103347EA03430CFB00F13A
:10076800994207D95B1900F1FF3221D299421FD96A
:1007780002382B445A1A40EA0646674650E71046A4
:1007880016E70B4629E7134672E7B0409042B7D206
:10079800601E002624E7304622E7A94295D9A8F131
:1007A80002081D4492E78C45A0D9023C19449EE7F3
:1007B8001046DFE70E46C9E70238294443E700BF81
:1007C80080B500AF0E4A0E4B1B6843F400731360EC
:1007D8000B4A0B4B1B6843F480631360084A084BB1
:1007E8001B6843F480731360032000F047F900206E
:1007F80000F008F803F020FB0023184680BD00BF76
:10080800003C024080B582B000AF7860124B1A6895
:10081800124B1B7819464FF47A73B3FBF1F3B2FB12
:10082800F3F3184600F05EF90346002B01D00123CC
:100838000EE07B680F2B0AD84FF0FF307968002252
:1008480000F026F9064A7B681360002300E00123C4
:1008580018460837BD4680BD080000200400002067
:100868000000002080B400AF054B1B781A46054BEA
:100878001B681344034A1360BD465DF8047B704748
:10088800040000208C00002080B400AF034B1B68DC
:100898001846BD465DF8047B704700BF8C000020F9
:1008A80080B584B000AF7860FFF7EEFFB8607B6872
:1008B800FB60FB68B3F1FF3F05D0094B1B781A4674
:1008C800FB681344FB6000BFFFF7DEFF0246BB680E
:1008D800D21AFB689A42F7D31037BD4680BD00BFD5
:1008E8000400002080B485B000AF78607B6803F016
:1008F8000703FB600C4BDB68BB60BA684FF6FF036D
:100908001340BB60FB681A02BB68134343F0BF6324
:1009180043F40033BB60044ABB68D3601437BD4658
:100928005DF8047B704700BF00ED00E080B400AFC5
:10093800044BDB6803F4E0631B0A1846BD465DF808
:10094800047B704700ED00E080B483B000AF03463D
:10095800FB7197F90730002B0BDB084997F9073033
:100968005B09FA7902F01F02012000FA02F241F84D
:1009780023200C37BD465DF8047B704700E100E09A
:1009880080B483B000AF03463960FB7197F9073034
:10099800002B0ADB0D4997F907303A68D2B21201E9
:1009A800D2B20B4483F800230AE00949FB7903F02B
:1009B8000F03043B3A68D2B21201D2B20B441A7642
:1009C8000C37BD465DF8047B704700BF00E100E0CE
:1009D80000ED00E080B489B000AFF860B9607A60DB
:1009E800FB6803F00703FB61FB69C3F10703042BF2
:1009F80028BF0423BB61FB690433062B02D9FB69BA
:100A0800033B00E000237B61BB69012202FA03F388
:100A18005A1EBB681A407B699A407B69012101FA1A
:100A280003F3591E7B680B40134318462437BD4611
:100A38005DF8047B704700BF80B582B000AF786076
:100A48007B68013BB3F1807F01D301230FE00A4AA1
:100A58007B68013B53604FF0FF300F21FFF790FF99
:100A6800054B00229A60044B07221A60002318469F
:100A78000837BD4680BD00BF10E000E080B582B0F9
:100A880000AF78607868FFF72DFF0837BD4680BD56
:100A980080B586B000AF0346B9607A60FB73002367
:100AA8007B61FFF743FF78617869B9687A68FFF777
:100AB80091FF024697F90F3018461146FFF760FF7D
:100AC8001837BD4680BD00BF80B582B000AF034671
:100AD800FB7197F907301846FFF736FF0837BD4610
:100AE80080BD00BF80B582B000AF78607868FFF73E
:100AF800A3FF034618460837BD4680BD80B586B0BB
:100B080000AF786000237B61FFF7BEFE38617B6829
:100B1800002B01D101239BE07B68002283F834205D
:100B28007B68022283F835207B681B687A68126824
:100B3800126822F001021A600FE0FFF7A5FE0246D4
:100B48003B69D31A052B08D97B6820225A657B6834
:100B5800032283F8352003237AE07B681B681B682F
:100B680003F00103002BE8D17B681B681B687B61DD
:100B78007A69394B13407B617B685A687B689B684C
:100B88001A437B68DB681A437B681B691A437B68D6
:100B98005B691A437B689B691A437B68DB691A4364
:100BA8007B681B6A13437A6913437B617B685B6AC2
:100BB800042B07D17B68DA6A7B681B6B13437A695D
:100BC80013437B617B681B687A691A607B681B68C2
:100BD8005B697B617B6923F007037B617B685B6AE8
:100BE8007A6913437B617B685B6A042B17D17B6846
:100BF8009B6A7A6913437B617B68DB6A002B0ED0A2
:100C0800786800F0B1FA0346002B08D07B684022D0
:100C18005A657B68012283F83520012318E07B6838
:100C28001B687A695A61786800F068FA0346FB60C5
:100C38007B68DB6D1A463F2303FA02F2FB689A6071
:100C48007B6800225A657B68012283F835200023DF
:100C580018461837BD4680BD3F8010F080B586B075
:100C680000AFF860B9607A603B600023FB75FB68F1
:100C78009B6D3B61FB6893F83430012B01D1022353
:100C88004AE0FB68012283F83420FB6893F835308A
:100C9800DBB2012B39D1FB68022283F83520FB68CF
:100CA80000225A65F868B9687A683B6800F0F8F974
:100CB800FB68DB6D1A463F2303FA02F23B699A6030
:100CC800FB681B68FA681268126842F016021A601C
:100CD800FB681B68FA681268526942F080025A6120
:100CE800FB681B6C002B07D0FB681B68FA6812684E
:100CF800126842F008021A60FB681B68FA681268FA
:100D0800126842F001021A6005E0FB68002283F8CD
:100D180034200223FB75FB7D18461837BD4680BD7D
:100D280080B483B000AF78607B6893F83530DBB26D
:100D3800022B04D07B6880225A6501230CE07B6873
:100D4800052283F835207B681B687A681268126868
:100D580022F001021A60002318460C37BD465DF8E0
:100D6800047B704780B586B000AF78600023BB6015
:100D7800994B1B68994AA2FB03239B0A7B617B68FA
:100D88009B6D3B613B691B68FB607B68DB6D1A46AA
:100D9800082303FA02F2FB681340002B1CD07B687F
:100DA8001B681B6803F00403002B15D07B681B68C5
:100DB8007A681268126822F004021A607B68DB6D98
:100DC8001A46082303FA02F23B699A607B685B6D56
:100DD80043F001027B685A657B68DB6D1A46012384
:100DE80003FA02F2FB681340002B14D07B681B68DF
:100DF8005B6903F08003002B0DD07B68DB6D1A461E
:100E0800012303FA02F23B699A607B685B6D43F049
:100E180002027B685A657B68DB6D1A46042303FA75
:100E280002F2FB681340002B14D07B681B681B6818
:100E380003F00203002B0DD07B68DB6D1A460423F8
:100E480003FA02F23B699A607B685B6D43F0040227
:100E58007B685A657B68DB6D1A46102303FA02F239
:100E6800FB681340002B45D07B681B681B6803F0A8
:100E78000803002B3ED07B68DB6D1A46102303FA6B
:100E880002F23B699A607B681B681B6803F4802345
:100E9800002B18D07B681B681B6803F40023002B09
:100EA80008D17B681B6C002B24D07B681B6C78688E
:100EB80098471FE07B689B6C002B1BD07B689B6C62
:100EC8007868984716E07B681B681B6803F4807392
:100ED800002B07D17B681B687A681268126822F0B9
:100EE80008021A607B681B6C002B03D07B681B6CA4
:100EF800786898477B68DB6D1A46202303FA02F26C
:100F0800FB681340002B00F093807B681B681B680C
:100F180003F01003002B00F08B807B68DB6D1A4612
:100F2800202303FA02F23B699A607B6893F8353014
:100F3800DBB2052B39D17B681B687A6812681268A6
:100F480022F016021A607B681B687A681268526978
:100F580022F080025A617B681B6C002B03D17B68EE
:100F68009B6C002B07D07B681B687A681268126834
:100F780022F008021A607B68DB6D1A463F2303FAE9
:100F880002F23B699A607B68002283F834207B6810
:100F9800012283F835207B681B6D002B04D07B6809
:100FA8001B6D7868984777E076E07B681B681B685C
:100FB80003F48023002B1CD07B681B681B6803F498
:100FC8000023002B0CD17B685B6C002B30D07B6836
:100FD8005B6C786898472BE008000020B5814E1BB1
:100FE8007B68DB6B002B23D07B68DB6B78689847CA
:100FF8001EE07B681B681B6803F48073002B0FD10D
:101008007B681B687A681268126822F010021A60FE
:101018007B68002283F834207B68012283F835201E
:101028007B68DB6B002B03D07B68DB6B78689847A9
:101038007B685B6D002B2FD07B685B6D03F0010331
:10104800002B21D07B68052283F835207B681B683C
:101058007A681268126822F001021A60BB680133CC
:10106800BB607A69934200D906E07B681B681B68FD
:1010780003F00103002BF1D17B68002283F83420B0
:101088007B68012283F835207B68DB6C002B03D05A
:101098007B68DB6C786898471837BD4680BD00BF11
:1010A80080B485B000AFF860B9607A603B60FB68D7
:1010B8001B68FA681268126822F480221A60FB68BA
:1010C8001B683A685A60FB689B68402B08D1FB682C
:1010D8001B687A689A60FB681B68BA68DA6007E080
:1010E800FB681B68BA689A60FB681B687A68DA60F4
:1010F8001437BD465DF8047B704700BF80B485B0E7
:1011080000AF78607B681B68DBB2103B144AA2FB17
:1011180003231B09FB60134AFB6813441B781A4618
:101128007B68DA65FB68032B09D97B681B6823F4A5
:101138007F7323F003031A1D7B689A6507E07B68B9
:101148001B6823F47F7323F003037A6893657B6835
:101158009B6D18461437BD465DF8047B704700BF89
:10116800ABAAAAAAD44A000880B485B000AF7860B8
:101178000023FB737B689B6ABB607B689B69002BC1
:1011880023D1BB68032B1ED801A252F823F000BF5D
:10119800A9110008BD110008A9110008CF11000805
:1011A8007B68DB6A03F08073002B02D00123FB739A
:1011B8000AE009E07B68DB6AB3F1C07F02D1012352
:1011C800FB7301E000E000BF3DE07B689B69B3F57D
:1011D800005F25D1BB68032B20D801A252F823F069
:1011E800F9110008FF110008F9110008131200088E
:1011F8000123FB7313E07B68DB6A03F08073002B29
:1012080002D00123FB730AE009E07B68DB6AB3F1D3
:10121800C07F02D10123FB7301E000E000BF12E0B0
:10122800BB68022B02D9032B03D00CE00123FB730C
:1012380009E07B68DB6A03F08073002B02D001238E
:10124800FB73FFE700BFFB7B18461437BD465DF80C
:10125800047B704780B489B000AF786039600023A0
:101268007B6100233B610023BB610023FB6167E1D5
:10127800FB69012202FA03F37B613B681A687B6908
:1012880013403B613A697B699A4240F056813B685A
:101298005B68022B03D03B685B68122B22D1FB6989
:1012A800DA087B68083253F82230BB61FB6903F027
:1012B80007039B001A460F239340DB43BA69134088
:1012C800BB613B681B69FA6902F007029200934010
:1012D800BA691343BB61FB69DA087B680832B969EC
:1012E80043F822107B681B68BB61FB695B001A46E8
:1012F80003239340DB43BA691340BB613B685B68D7
:1013080003F00303FA6952009340BA691343BB61BF
:101318007B68BA691A603B685B68012B0BD03B6835
:101328005B68022B07D03B685B68112B03D03B68D6
:101338005B68122B2FD17B689B68BB61FB695B00E4
:101348001A4603239340DB43BA691340BB613B68E9
:10135800DB68FA6952009340BA691343BB617B6842
:10136800BA699A607B685B68BB61FB69012202FA13
:1013780003F3DB43BA691340BB613B685B6803F066
:1013880010031A09FB6902FA03F3BA691343BB6134
:101398007B68BA695A607B68DB68BB61FB695B0084
:1013A8001A4603239340DB43BA691340BB613B6889
:1013B8009B68FA6952009340BA691343BB617B6822
:1013C800BA69DA603B685B6803F08053002B00F071
:1013D800B4800023FB605F4A5E4B5B6C43F4804340
:1013E80053645C4B5B6C03F48043FB60FB685A4AB4
:1013F800FB699B08023352F82330BB61FB6903F099
:1014080003039B001A460F239340DB43BA6913403A
:10141800BB617B68514A93422BD07B68504A934208
:1014280025D07B684F4A93421FD07B684E4A93422F
:1014380019D07B684D4A934213D07B684C4A93423B
:101448000DD07B684B4A934207D07B684A4A934247
:1014580001D107230EE008230CE006230AE0052348
:1014680008E0042306E0032304E0022302E001234A
:1014780000E00023FA6902F0030292009340BA697F
:101488001343BB613449FB699B080233BA6941F8CD
:1014980023203A4B1B68BB613B69DB43BA691340A5
:1014A800BB613B685B6803F48033002B03D0BA69E7
:1014B8003B691343BB61314ABB6913602F4B5B68BF
:1014C800BB613B69DB43BA691340BB613B685B683E
:1014D80003F40033002B03D0BA693B691343BB61A3
:1014E800264ABB695360254B9B68BB613B69DB435C
:1014F800BA691340BB613B685B6803F48013002B37
:1015080003D0BA693B691343BB611C4ABB6993604A
:101518001A4BDB68BB613B69DB43BA691340BB61AB
:101528003B685B6803F40013002B03D0BA693B697E
:101538001343BB61114ABB69D360FB690133FB618B
:10154800FB690F2B7FF694AE2437BD465DF8047B0C
:10155800704700BF003802400038014000000240D8
:101568000004024000080240000C02400010024043
:101578000014024000180240001C0240003C0140D8
:1015880080B483B000AF78600B467B8013467B70D5
:101598007B78002B03D07A887B689A6103E07B888C
:1015A8001A047B689A610C37BD465DF8047B704766
:1015B80080B483B000AF78600B467B807B685A6943
:1015C8007B881A407B889A4204D17B881A047B68FE
:1015D8009A6102E07A887B689A610C37BD465DF8AB
:1015E800047B704780B582B000AF0346FB80084B90
:1015F8005A69FB881340002B06D0054AFB885361C3
:10160800FB88184602F010FB0837BD4680BD00BFB6
:10161800003C014080B586B000AF78607B68002B45
:1016280001D101232AE27B681B6803F00103002B28
:1016380073D0A64B9B6803F00C03042B0BD0A34B71
:101648009B6803F00C03082B12D1A04B5B6803F4D2
:101658008003002B0CD09D4B1B6803F40033002B38
:1016680005D07B685B68002B01D1012306E254E0BA
:101678007B685B68B3F5803F06D1944A934B1B683F
:1016880043F4803313601DE07B685B68B3F5A02FDB
:101698000CD18E4A8D4B1B6843F4802313608B4A10
:1016A8008A4B1B6843F4803313600BE0874A874BEF
:1016B8001B6823F480331360844A844B1B6823F42B
:1016C800802313607B685B68002B13D0FFF7DCF87E
:1016D800386108E0FFF7D8F802463B69D31A642B53
:1016E80001D90323CAE1794B1B6803F40033002BAB
:1016F800F0D012E0FFF7C8F8386108E0FFF7C4F847
:1017080002463B69D31A642B01D90323B6E16F4B18
:101718001B6803F40033002BF0D17B681B6803F0CF
:101728000203002B63D0694B9B6803F00C03002B6A
:101738000BD0664B9B6803F00C03082B1CD1634B42
:101748005B6803F48003002B16D1604B1B6803F021
:101758000203002B05D07B68DB68012B01D0012335
:101768008CE15A49594B1B6823F0F8027B681B69C6
:10177800DB0013430B603AE07B68DB68002B20D06A
:10178800534B01221A60FFF77FF8386108E0FFF732
:101798007BF802463B69D31A022B01D903236DE17A
:1017A8004A4B1B6803F00203002BF0D04749474B14
:1017B8001B6823F0F8027B681B69DB0013430B608E
:1017C80015E0434B00221A60FFF75EF8386108E025
:1017D800FFF75AF802463B69D31A022B01D90323B3
:1017E8004CE13A4B1B6803F00203002BF0D17B68F5
:1017F8001B6803F00803002B30D07B685B69002B63
:1018080016D0344B01221A60FFF73EF8386108E021
:10181800FFF73AF802463B69D31A022B01D9032392
:101828002CE12A4B5B6F03F00203002BF0D015E08C
:10183800284B00221A60FFF727F8386108E0FFF705
:1018480023F802463B69D31A022B01D9032315E179
:101858001E4B5B6F03F00203002BF0D17B681B6803
:1018680003F00403002B00F09F800023FB75174B47
:101878001B6C03F08053002B0FD10023FB60134A2D
:10188800124B1B6C43F080531364104B1B6C03F01A
:101898008053FB60FB680123FB750F4B1B6803F447
:1018A8008073002B20D10C4A0B4B1B6843F48073C8
:1018B8001360FEF7E9FF386110E0FEF7E5FF024626
:1018C8003B69D31A022B09D90323D7E00038024019
:1018D80000004742800E474200700040694B1B6879
:1018E80003F48073002BE8D07B689B68012B06D13A
:1018F800654A654B1B6F43F0010313671CE07B6867
:101908009B68052B0CD1604A5F4B1B6F43F00403A7
:1019180013675D4A5C4B1B6F43F0010313670BE0D1
:10192800594A594B1B6F23F001031367564A564B0C
:101938001B6F23F0040313677B689B68002B15D08B
:10194800FEF7A2FF38610AE0FEF79EFF02463B69F8
:10195800D31A41F28832934201D903238EE04A4BCD
:101968001B6F03F00203002BEED014E0FEF78CFF90
:1019780038610AE0FEF788FF02463B69D31A41F254
:101988008832934201D9032378E03F4B1B6F03F061
:101998000203002BEED1FB7D012B05D13A4A3A4BCD
:1019A8001B6C23F0805313647B689B69002B64D005
:1019B800354B9B6803F00C03082B5CD07B689B6954
:1019C800022B41D1314B00221A60FEF75DFF3861CE
:1019D80008E0FEF759FF02463B69D31A022B01D9EA
:1019E80003234BE0284B1B6803F00073002BF0D156
:1019F80025497B68DA697B681B6A1A437B685B6ADE
:101A08009B011A437B689B6A5B08013B1B041A43D2
:101A18007B68DB6A1B0613434B601C4B01221A6070
:101A2800FEF732FF386108E0FEF72EFF02463B69F9
:101A3800D31A022B01D9032320E0134B1B6803F0B0
:101A48000073002BF0D018E0104B00221A60FEF74C
:101A58001BFF386108E0FEF717FF02463B69D31AFF
:101A6800022B01D9032309E0074B1B6803F000731D
:101A7800002BF0D101E0012300E0002318461837BD
:101A8800BD4680BD007000400038024060004742FB
:101A980080B584B000AF786039607B68002B01D1D5
:101AA8000123CBE0674B1B6803F00F023B689A42A7
:101AB8000CD2644B3A68D2B21A70624B1B6803F0BE
:101AC8000F023B689A4201D00123B7E07B681B688C
:101AD80003F00203002B20D07B681B6803F004038B
:101AE800002B05D0584A584B9B6843F4E053936049
:101AF8007B681B6803F00803002B05D0524A524B41
:101B08009B6843F4604393604F494F4B9B6823F0B5
:101B1800F0027B689B6813438B607B681B6803F04B
:101B28000103002B45D07B685B68012B07D1464B2E
:101B38001B6803F40033002B1AD101237EE07B6875
:101B48005B68022B03D07B685B68032B08D13E4B94
:101B58001B6803F00073002B01D101236EE007E03E
:101B6800394B1B6803F00203002B01D1012365E008
:101B78003549354B9B6823F003027B685B68134348
:101B88008B60FEF781FEF8600AE0FEF77DFE0246F4
:101B9800FB68D31A41F28832934201D903234DE0FE
:101BA800294B9B6803F00C027B685B689B009A4298
:101BB800EBD1244B1B6803F00F023B689A420CD907
:101BC800204B3A68D2B21A701E4B1B6803F00F0202
:101BD8003B689A4201D0012330E07B681B6803F020
:101BE8000403002B08D01849174B9B6823F4E052D4
:101BF8007B68DB6813438B607B681B6803F0080312
:101C0800002B09D01049104B9B6823F460427B6875
:101C18001B69DB0013438B6000F01CF801460A4B7C
:101C28009B6803F0F0031B09084AD35C21FA03F30D
:101C3800074A13600020FEF7E5FD00231846103719
:101C4800BD4680BD003C024000380240DC4A000826
:101C5800080000202DE9F04F8FB000AF0023FB6291
:101C680000237B630023BB6200233B63614B9B68BB
:101C780003F00C03042B07D0082B08D0002B40F0EE
:101C8800AF805D4B3B63AEE05C4B3B63ABE0594BD5
:101C98005B6803F03F03FB62564B5B6803F4800309
:101CA800002B4DD0534B5A6847F6C07313409B091D
:101CB80018464FF0000102460B46DC007C627C6A45
:101CC80044EA52747C62D3003B62D7E908235C0182
:101CD800FC61FC6944EAD264FC615401BC61D7E947
:101CE8000645A41A65EB03052B464FEA83192346DC
:101CF80049EA936923464FEA8318B8EB040469EB71
:101D08000505A046A94618EB000849EB01094FEA6A
:101D180049237B617B6943EAD8537B614FEA4823B7
:101D28003B61D7E9048940464946FB6A1A464FF0A9
:101D38000003FEF777FA02460B4613467B6341E041
:101D48002C4B5A6847F6C07313409B0918464FF04E
:101D5800000102460B46DE00FE60FE6846EA527647
:101D6800FE60D300BB60D7E902234FEA431B4BEA6E
:101D7800D26B4FEA421ABAEB020A6BEB030B4FEA3B
:101D88008B1545EA9A654FEA8A14B4EB0A0465EBA9
:101D98000B05241845EB0105AB027B607B6843EA21
:101DA80094537B60A3023B60D7E90045204629464F
:101DB800FB6A1A464FF00003FEF734FA02460B4658
:101DC80013467B630B4B5B6803F440331B0C0133F6
:101DD8005B00BB627A6BBB6AB2FBF3F33B6302E066
:101DE800054B3B6300BF3B6B18463C37BD46BDE81F
:101DF800F08F00BF003802400024F40000127A007F
:101E080080B400AF034B1B681846BD465DF8047BE1
:101E1800704700BF0800002080B500AFFFF7F0FF53
:101E28000146054B9B6803F4E0539B0A034AD35CC5
:101E380021FA03F3184680BD00380240EC4A000836
:101E480080B500AFFFF7DCFF0146054B9B6803F444
:101E580060435B0B034AD35C21FA03F3184680BD49
:101E680000380240EC4A000880B582B000AF7860C4
:101E78007B68002B01D1012355E07B6800229A6220
:101E88007B6893F85130DBB2002B06D17B680022C7
:101E980083F85020786801F013FF7B68022283F8EA
:101EA80051207B681B687A681268126822F0400229
:101EB8001A607B681B687A6851687A68926811436F
:101EC8007A68D26811437A68126911437A6852694C
:101ED80011437A68926902F4007211437A68D269F0
:101EE80011437A68126A11437A68926A0A431A603F
:101EF8007B681B687A689269120C02F004017A68A0
:101F0800526A0A435A607B681B687A681268D26909
:101F180022F40062DA617B6800225A657B6801223C
:101F280083F85120002318460837BD4680BD00BFFE
:101F380080B588B000AFF860B9603B601346FB809D
:101F48000023FB77FB6893F85030012B01D1022363
:101F58001CE1FB68012283F85020FEF795FCB8616C
:101F6800FB88FB82FB6893F85130DBB2012B02D06F
:101F78000223FB7701E1BB68002B02D0FB88002B12
:101F880002D10123FB77F8E0FB68032283F8512094
:101F9800FB6800225A65FB68BA681A63FB68FA880E
:101FA8009A86FB68FA88DA86FB6800229A63FB68DF
:101FB80000229A87FB680022DA87FB6800225A64AD
:101FC800FB6800221A64FB689B68B3F5004F07D1D1
:101FD800FB681B68FA681268126842F480421A604B
:101FE800FB681B681B6803F04003002B07D1FB68E4
:101FF8001B68FA681268126842F040021A60FB68AF
:10200800DB68B3F5006F4BD1FB685B68002B02D02F
:10201800FB8A012B11D1FB681B68FA68126B1288C6
:10202800DA60FB681B6B9A1CFB681A63FB68DB8E23
:102038009BB2013B9AB2FB68DA862BE0FB681B680F
:102048009B6803F00203002B12D0FB681B68FA6838
:10205800126B1288DA60FB681B6B9A1CFB681A63A8
:10206800FB68DB8E9BB2013B9AB2FB68DA8611E013
:10207800FEF70AFC0246BB69D21A3B689A4203D3B0
:102088003B68B3F1FF3F02D13B68002B02D1032329
:10209800FB7772E0FB68DB8E9BB2002BCED14CE065
:1020A800FB685B68002B02D0FB8A012B12D1FB680E
:1020B8001B680C33FA68126B12781A70FB681B6B7A
:1020C8005A1CFB681A63FB68DB8E9BB2013B9AB211
:1020D800FB68DA862CE0FB681B689B6803F0020348
:1020E800002B13D0FB681B680C33FA68126B12784C
:1020F8001A70FB681B6B5A1CFB681A63FB68DB8E43
:102108009BB2013B9AB2FB68DA8611E0FEF7BCFB92
:102118000246BB69D21A3B689A4203D33B68B3F1C3
:10212800FF3F02D13B68002B02D10323FB7724E059
:10213800FB68DB8E9BB2002BCDD1F8683968BA6991
:1021480000F0B2FC0346002B02D0FB6820225A653F
:10215800FB689B68002B0AD100233B61FB681B6866
:10216800DB683B61FB681B689B683B613B69FB68FC
:102178005B6D002B01D00123FB77FB68012283F8FC
:102188005120FB68002283F85020FB7F1846203737
:10219800BD4680BD90B589B002AFF860B9603B60BC
:1021A8001346FB800023FB75FB685B68B3F5827FF1
:1021B80012D1FB689B68002B0ED1FB68042283F8C0
:1021C8005120FC883B680093F868B968BA682346D0
:1021D80000F0E8F80346E0E0FB6893F85030012B84
:1021E80001D10223D9E0FB68012283F85020FEF7D1
:1021F8004BFB3861FB6893F85130DBB2012B02D0FE
:102208000223FB75C0E0BB68002B02D0FB88002BC3
:1022180002D10123FB75B7E0FB68042283F8512043
:10222800FB6800225A65FB68BA689A63FB68FA88FB
:102238009A87FB68FA88DA87FB6800221A63FB68CA
:1022480000229A86FB680022DA86FB6800221A645C
:10225800FB6800225A64FB689B68B3F5004F07D1FE
:10226800FB681B68FA681268126822F480421A60D8
:10227800FB681B681B6803F04003002B07D1FB6851
:102288001B68FA681268126842F040021A60FB681C
:10229800DB68002B34D12DE0FB681B689B6803F0DA
:1022A8000103002B14D0FB689B6BFA6812680C3290
:1022B8001278D2B21A70FB689B6B5A1CFB689A633F
:1022C800FB68DB8F9BB2013B9AB2FB68DA8711E0AF
:1022D800FEF7DAFA02463B69D21A3B689A4203D300
:1022E8003B68B3F1FF3F02D13B68002B02D10323C7
:1022F800FB7549E0FB68DB8F9BB2002BCCD132E049
:102308002CE0FB681B689B6803F00103002B13D0CB
:10231800FB689B6BFA681268D26892B21A80FB68F5
:102328009B6B9A1CFB689A63FB68DB8F9BB2013B33
:102338009AB2FB68DA8711E0FEF7A6FA02463B6913
:10234800D21A3B689A4203D33B68B3F1FF3F02D1EC
:102358003B68002B02D10323FB7515E0FB68DB8F7C
:102368009BB2002BCDD1F86839683A6900F036FB8A
:102378000346002B02D0FB6820225A65FB685B6D80
:10238800002B01D00123FB75FB68012283F8512043
:10239800FB68002283F85020FB7D18461C37BD4699
:1023A80090BD00BF80B58CB000AFF860B9607A60AE
:1023B8007B800123FB62002387F82B30FB6893F8AE
:1023C8005030012B01D1022388E1FB68012283F8F8
:1023D8005020FEF759FA7862FB6893F8513087F875
:1023E8002330FB685B68FB617B887B8397F823302D
:1023F800012B0FD0FB69B3F5827F07D1FB689B687F
:10240800002B03D197F82330042B03D0022387F83D
:102418002B3059E1BB68002B05D07B68002B02D01C
:102428007B88002B03D1012387F82B304CE1FB6814
:1024380093F85130DBB2042B03D0FB68052283F8F4
:102448005120FB6800225A65FB687A689A63FB682A
:102458007A88DA87FB687A889A87FB68BA681A6389
:10246800FB687A88DA86FB687A889A86FB68002295
:102478001A64FB6800225A64FB681B681B6803F037
:102488004003002B07D1FB681B68FA6812681268C2
:1024980042F040021A60FB68DB68B3F5006F78D140
:1024A800FB685B68002B02D07B8B012B11D1FB688A
:1024B8001B68FA68126B1288DA60FB681B6B9A1C3F
:1024C800FB681A63FB68DB8E9BB2013B9AB2FB6820
:1024D800DA8653E0FB681B689B6803F00203002B55
:1024E8001BD0FB68DB8E9BB2002B16D0FB6A012B3E
:1024F80013D1FB681B68FA68126B1288DA60FB68F4
:102508001B6B9A1CFB681A63FB68DB8E9BB2013B52
:102518009AB2FB68DA860023FB62FB681B689B683B
:1025280003F00103002B19D0FB68DB8F9BB2002B53
:1025380014D0FB689B6BFA681268D26892B21A8052
:10254800FB689B6B9A1CFB689A63FB68DB8F9BB2EA
:10255800013B9AB2FB68DA870123FB62FEF794F924
:1025680002467B6AD21ABB6B9A4207D3BB6BB3F1A4
:10257800FF3F03D0032387F82B30A5E0FB68DB8EF1
:102588009BB2002BA6D1FB68DB8F9BB2002BA1D19D
:102598007CE0FB685B68002B02D07B8B012B12D19F
:1025A800FB681B680C33FA68126B12781A70FB68A8
:1025B8001B6B5A1CFB681A63FB68DB8E9BB2013BE2
:1025C8009AB2FB68DA8657E0FB681B689B6803F0E1
:1025D8000203002B1CD0FB68DB8E9BB2002B17D0AC
:1025E800FB6A012B14D1FB681B680C33FA68126B69
:1025F80012781A70FB681B6B5A1CFB681A63FB681D
:10260800DB8E9BB2013B9AB2FB68DA860023FB6241
:10261800FB681B689B6803F00103002B19D0FB685B
:10262800DB8F9BB2002B14D0FB689B6BFA68126897
:10263800D268D2B21A70FB689B6B5A1CFB689A630B
:10264800FB68DB8F9BB2013B9AB2FB68DA870123F8
:10265800FB62FEF719F902467B6AD21ABB6B9A42F3
:1026680003D3BB6BB3F1FF3F02D1BB6B002B03D18C
:10267800032387F82B3027E0FB68DB8E9BB2002B07
:10268800A2D1FB68DB8F9BB2002B9DD1F868B96B98
:102698007A6A00F009FA0346002B06D0012387F86E
:1026A8002B30FB6820225A650EE0FB689B68002BE4
:1026B8000AD100237B61FB681B68DB687B61FB68D0
:1026C8001B689B687B617B69FB68012283F851204A
:1026D800FB68002283F8502097F82B3018463037D3
:1026E800BD4680BD80B588B000AF78607B681B6848
:1026F8005B68FB617B681B689B68BB61BB6903F017
:102708004003002B0ED1BB6903F00103002B09D055
:10271800FB6903F04003002B04D07B681B6C7868CE
:102728009847CDE0BB6903F00203002B09D0FB6991
:1027380003F08003002B04D07B685B6C78689847B3
:10274800BEE0BB6903F02003002B0AD1BB6903F08C
:102758004003002B05D1BB6903F48073002B00F004
:10276800AF80FB6903F02003002B00F0A980BB6950
:1027780003F04003002B23D07B6893F85130DBB281
:10278800032B11D07B685B6D43F004027B685A65AC
:1027980000237B617B681B68DB687B617B681B6847
:1027A8009B687B617B690BE000233B617B681B684E
:1027B800DB683B617B681B689B683B613B697FE02A
:1027C800BB6903F02003002B14D07B685B6D43F0DA
:1027D80001027B685A650023FB607B681B689B6865
:1027E800FB607B681B687A681268126822F04002F6
:1027F8001A60FB68BB6903F48073002B0CD07B68FC
:102808005B6D43F008027B685A650023BB607B68F8
:102818001B689B68BB60BB687B685B6D002B4ED0F8
:102828007B681B687A681268526822F0E0025A6076
:102838007B68012283F85120FB6903F00203002B17
:1028480004D1FB6903F00103002B35D07B681B68BA
:102858007A681268526822F003025A607B68DB6C5F
:10286800002B11D07B68DB6C174A1A657B68DB6C20
:102878001846FEF755FA0346002B05D07B685B6DBA
:1028880043F040027B685A657B689B6C002B12D032
:102898007B689B6C0C4A1A657B689B6C1846FEF734
:1028A8003FFA0346002B06D07B685B6D43F040027D
:1028B8007B685A6503E002E0786800F007F800BF1B
:1028C8002037BD4680BD00BFE928000880B483B02A
:1028D80000AF78600C37BD465DF8047B704700BFD9
:1028E80080B584B000AF78607B689B6BFB60FB6849
:1028F8000022DA87FB680022DA86F868FFF7E6FF2D
:102908001037BD4680BD00BF80B584B000AFF86009
:10291800B9603B601346FB714CE03B68B3F1FF3F85
:1029280048D0FDF7B1FF0246BB69D21A3B689A420C
:1029380002D23B68002B3DD1FB681B68FA6812681D
:10294800526822F0E0025A60FB685B68B3F5827F48
:1029580011D1FB689B68B3F5004F04D0FB689B68F6
:10296800B3F5806F07D1FB681B68FA6812681268B4
:1029780022F040021A60FB689B6AB3F5005F0FD132
:10298800FB681B68FA681268126822F400521A6021
:10299800FB681B68FA681268126842F400521A60F1
:1029A800FB68012283F85120FB68002283F850203D
:1029B80003230FE0FB681B689A68BB681A40BB6872
:1029C8009A420CBF01230023DBB21A46FB799A42D4
:1029D800A3D1002318461037BD4680BD80B586B008
:1029E80002AFF860B9607A60FB685B68B3F5827F14
:1029F80011D1FB689B68B3F5004F04D0FB689B6856
:102A0800B3F5806F07D1FB681B68FA681268126813
:102A180022F040021A60FB685B68B3F5827F2AD116
:102A2800FB689B68B3F5806F12D07B680093F868E9
:102A380080210022BB68FFF767FF0346002B2DD0DB
:102A4800FB685B6D43F02002FB685A65032326E0B0
:102A58007B680093F86801210022BB68FFF754FFE8
:102A68000346002B1AD0FB685B6D43F02002FB681D
:102A78005A65032313E07B680093F868012100225C
:102A8800BB68FFF741FF0346002B07D0FB685B6D6F
:102A980043F02002FB685A65032300E00023184630
:102AA8001037BD4680BD00BF80B588B002AFF86062
:102AB800B9607A601A4B1B681A4AA2FB03235B0DA4
:102AC8004FF47A7202FB03F37B61FB685B68B3F532
:102AD800827F12D17B680093F86880210022BB684E
:102AE800FFF712FF0346002B15D0FB685B6D43F020
:102AF8002002FB685A6503230EE07B69002B00D196
:102B080009E07B69013B7B61FB681B689B6803F0FC
:102B18008003002BF1D1002318461837BD4680BD2D
:102B280008000020819F5E1680B582B000AF7860F3
:102B38007B68002B01D101233FE07B6893F8393093
:102B4800DBB2002B06D17B68002283F83820786836
:102B580001F080FA7B68242283F839207B681B689F
:102B68007A681268D26822F40052DA60786800F055
:102B780073FB7B681B687A681268126922F49042BA
:102B88001A617B681B687A681268526922F02A0207
:102B98005A617B681B687A681268D26842F40052EE
:102BA800DA607B680022DA637B68202283F83920A8
:102BB8007B68202283F83A20002318460837BD4650
:102BC80080BD00BF90B587B000AFF860B96013460C
:102BD800FB80FB6893F83930DBB2202B56D1BB68F9
:102BE800002B02D0FB88002B01D101234FE0FB68AA
:102BF80093F83830012B01D1022348E0FB68012209
:102C080083F83820BA68FB681A62FB68FA889A84E5
:102C1800FB68FA88DA84FB680022DA63FB68212201
:102C280083F83920FB681B6B1B4ADA63FB681B6B54
:102C38001A4A1A64FB681B6B194ADA64FB681B6B37
:102C480000221A6507F108037B61FB68196B7B6931
:102C58001A68FB681B6804331C46FB880846114643
:102C68002246FDF7FBFFFB681B686FF040021A6005
:102C7800FB68002283F83820FB681B68FA68126832
:102C8800526942F080025A61002300E0022318468C
:102C98001C37BD4690BD00BFF12E0008412F00082B
:102CA8005D2F000880B588B000AF78607B681B682E
:102CB8001B68FB617B681B68DB68BB617B681B6802
:102CC8005B697B6100233B610023FB60FB6903F0C8
:102CD8000F033B613B69002B0DD1FB6903F0200317
:102CE800002B08D0BB6903F02003002B03D07868C1
:102CF80000F030FACAE03B69002B00F0AB807B693A
:102D080003F00103002B05D1BB6903F49073002B7A
:102D180000F0A080FB6903F00103002B0AD0BB6917
:102D280003F48073002B05D07B68DB6B43F0010252
:102D38007B68DA63FB6903F00403002B0AD07B6924
:102D480003F00103002B05D07B68DB6B43F0020224
:102D58007B68DA63FB6903F00203002B0AD07B6906
:102D680003F00103002B05D07B68DB6B43F0040202
:102D78007B68DA63FB6903F00803002B0AD07B69E0
:102D880003F00103002B05D07B68DB6B43F00802DE
:102D98007B68DA637B68DB6B002B5AD0FB6903F036
:102DA8002003002B07D0BB6903F02003002B02D0BF
:102DB800786800F0CFF97B681B685B6903F0400313
:102DC800002B14BF01230023DBB2FB607B68DB6BA5
:102DD80003F00803002B02D1FB68002B32D078687F
:102DE80000F018F97B681B685B6903F04003002B4F
:102DF80023D07B681B687A681268526922F0400207
:102E08005A617B685B6B002B13D07B685B6B214A34
:102E18001A657B685B6B1846FDF782FF0346002B3B
:102E28000FD07B685B6B1B6D7A68526B10469847B6
:102E380007E0786800F04EF80BE0786800F04AF890
:102E480007E006E0786800F045F87B680022DA635E
:102E58001CE01BE0FB6903F08003002B08D0BB6972
:102E680003F08003002B03D0786800F005F90DE02B
:102E7800FB6903F04003002B08D0BB6903F0400353
:102E8800002B03D0786800F04DF900BF2037BD460D
:102E980080BD00BF5930000880B483B000AF7860AF
:102EA8000C37BD465DF8047B704700BF80B483B023
:102EB80000AF78600C37BD465DF8047B704700BFF3
:102EC80080B483B000AF78600C37BD465DF8047BF2
:102ED800704700BF80B483B000AF78600C37BD4640
:102EE8005DF8047B704700BF80B584B000AF7860A0
:102EF8007B689B6BFB607B681B681B6803F48073B3
:102F0800002B13D1FB680022DA84FB681B68FA687F
:102F18001268526922F080025A61FB681B68FA68DD
:102F28001268D26842F04002DA6002E0F868FFF7FF
:102F3800B3FF1037BD4680BD80B584B000AF786060
:102F48007B689B6BFB60F868FFF7B0FF1037BD46E6
:102F580080BD00BF80B584B000AF78600023FB60FF
:102F68007B689B6BBB60BB681B685B6903F0800375
:102F7800002B14BF01230023DBB2FB60BB6893F86E
:102F88003930DBB2212B08D1FB68002B05D0BB6898
:102F98000022DA84B86800F027F8BB681B685B6910
:102FA80003F04003002B14BF01230023DBB2FB60B6
:102FB800BB6893F83A30DBB2222B08D1FB68002BB0
:102FC80005D0BB680022DA85B86800F023F8BB6832
:102FD800DB6B43F01002BB68DA63B868FFF77AFF6F
:102FE8001037BD4680BD00BF80B483B000AF7860A5
:102FF8007B681B687A681268D26822F0C002DA60BF
:103008007B68202283F839200C37BD465DF8047BA5
:10301800704700BF80B483B000AF78607B681B68DE
:103028007A681268D26822F49072DA607B681B684A
:103038007A681268526922F001025A617B6820227C
:1030480083F83A200C37BD465DF8047B704700BF13
:1030580080B584B000AF78607B689B6BFB60FB68D1
:103068000022DA85FB680022DA84F868FFF732FF6D
:103078001037BD4680BD00BF80B485B000AF786012
:103088007B6893F83930DBB2212B43D17B689B688E
:10309800B3F5805F19D17B681B6AFB607B681B688E
:1030A800FA681288C2F308025A607B681B69002B11
:1030B80005D17B681B6A9A1C7B681A620EE07B68E4
:1030C8001B6A5A1C7B681A6208E07B681A687B686E
:1030D8001B6A581C796808621B7853607B68DB8C14
:1030E8009BB2013B9BB27A681946D184002B0FD161
:1030F8007B681B687A681268D26822F08002DA60FE
:103108007B681B687A681268D26842F04002DA600D
:10311800002300E0022318461437BD465DF8047BFF
:10312800704700BF80B582B000AF78607B681B68CD
:103138007A681268D26822F04002DA607B6820223E
:1031480083F839207868FFF7A7FE00231846083768
:10315800BD4680BD80B584B000AF78607B6893F8C9
:103168003A30DBB2222B71D17B689B68B3F5805F64
:1031780023D17B689B6AFB607B681B69002B0ED19F
:103188007B681B685B689BB2C3F308039AB2FB6851
:103198001A807B689B6A9A1C7B689A6229E07B6824
:1031A8001B685B689BB2DBB29AB2FB681A807B68CB
:1031B8009B6A5A1C7B689A621BE07B681B69002B20
:1031C8000AD17B689B6A591C7A6891627A6812688E
:1031D8005268D2B21A700CE07B689B6A591C7A68F4
:1031E80091627A6812685268D2B202F07F02D2B253
:1031F8001A707B68DB8D9BB2013B9BB27A681946DB
:10320800D185002B20D17B681B687A681268D26848
:1032180022F02002DA607B681B687A681268D2683C
:1032280022F48072DA607B681B687A6812685269D7
:1032380022F001025A617B68202283F83A207868DC
:10324800FFF73EFE002302E0002300E002231846B9
:103258001037BD4680BD00BFF0B585B000AF7860BF
:103268007B681B687A681268126922F440517A6890
:10327800D2680A431A617B689A687B681B691A439B
:103288007B685B691A437B68DB691343FB607B6877
:103298001A687B681B68DB6823F4164323F00C0369
:1032A800F9680B43D3607B681B687A6812685269B7
:1032B80022F440717A6892690A435A617B68DB6933
:1032C800B3F5004F40F0E4807B681B68AB4A93423B
:1032D80004D07B681B68AA4A93426CD17B681C683F
:1032E800FEF7AEFD024613469B0013449A001A44AB
:1032F8007B685B685B00B2FBF3F3A24AA2FB032383
:103308005B091D01FEF79CFD024613469B00134412
:103318009A001A447B685B685B00B2FBF3F6FEF721
:103328008FFD024613469B0013449A001A447B689B
:103338005B685B00B2FBF3F3924AA2FB03235B09D1
:10334800642202FB03F3F31ADB0032338D4AA2FB3B
:1033580003235B0903F0F8035B001D44FEF770FDCF
:10336800024613469B0013449A001A447B685B6824
:103378005B00B2FBF3F6FEF763FD024613469B00C3
:1033880013449A001A447B685B685B00B2FBF3F352
:103398007C4AA2FB03235B09642202FB03F3F31AB2
:1033A800DB003233774AA2FB03235B0903F00703F0
:1033B8002B44A36053E17B681C68FEF72DFD024691
:1033C80013469B0013449A001A447B685B685B00B1
:1033D800B2FBF3F36B4AA2FB03235B091D01FEF763
:1033E8001BFD024613469B0013449A001A447B684F
:1033F8005B685B00B2FBF3F6FEF70EFD0246134670
:103408009B0013449A001A447B685B685B00B2FB1C
:10341800F3F35C4AA2FB03235B09642202FB03F378
:10342800F31ADB003233574AA2FB03235B0903F08C
:10343800F8035B001D44FEF7EFFC024613469B00B1
:1034480013449A001A447B685B685B00B2FBF3F68E
:10345800FEF7E2FC024613469B0013449A001A4406
:103468007B685B685B00B2FBF3F3464AA2FB03236D
:103478005B09642202FB03F3F31ADB003233414A8F
:10348800A2FB03235B0903F007032B44A360E6E0D8
:103498007B681B68394A934204D07B681B68384AAA
:1034A800934271D17B681C68FEF7CAFC024613463A
:1034B8009B0013449A001A447B685B689B00B2FB2C
:1034C800F3F3304AA2FB03235B091D01FEF7B8FCA6
:1034D800024613469B0013449A001A447B685B68B3
:1034E8009B00B2FBF3F6FEF7ABFC024613469B00CB
:1034F80013449A001A447B685B689B00B2FBF3F3A1
:10350800204AA2FB03235B09642202FB03F3F31A9C
:103518001B0132331B4AA2FB03235B0903F0F003B0
:103528001D44FEF78DFC024613469B0013449A0087
:103538001A447B685B689B00B2FBF3F6FEF780FCDD
:10354800024613469B0013449A001A447B685B6842
:103558009B00B2FBF3F30B4AA2FB03235B09642233
:1035680002FB03F3F31A1B013233064AA2FB0323BF
:103578005B0903F00F032B44A36070E000100140C7
:10358800001401401F85EB517B681C68FEF744FC62
:10359800024613469B0013449A001A447B685B68F2
:1035A8009B00B2FBF3F32F4AA2FB03235B091D0127
:1035B800FEF732FC024613469B0013449A001A4455
:1035C8007B685B689B00B2FBF3F6FEF725FC0246BE
:1035D80013469B0013449A001A447B685B689B005F
:1035E800B2FBF3F31F4AA2FB03235B09642202FB2D
:1035F80003F3F31A1B0132331A4AA2FB03235B09B4
:1036080003F0F0031D44FEF707FC024613469B0037
:1036180013449A001A447B685B689B00B2FBF3F67C
:10362800FEF7FAFB024613469B0013449A001A441D
:103638007B685B689B00B2FBF3F30A4AA2FB032397
:103648005B09642202FB03F3F31A1B013233054AB8
:10365800A2FB03235B0903F00F032B44A360143779
:10366800BD46F0BD1F85EB5180B582B000AF002389
:103678007B601E4A1D4B1B6B43F4800313631B4B7B
:103688001B6B03F480037B607B6800233B60174A55
:10369800164B1B6B43F400131363144B1B6B03F49F
:1036A80000133B603B680C2000210022FDF7F0F975
:1036B8000C20FDF709FA0E2000210022FDF7E8F999
:1036C8000E20FDF701FA382000210022FDF7E0F96D
:1036D8003820FDF7F9F93B2000210022FDF7D8F941
:1036E8003B20FDF7F1F90837BD4680BD00380240A0
:1036F80080B58AB000AF07F1140300221A600433C2
:1037080000221A60043300221A60043300221A606F
:10371800043300221A60043300233B61474A474BB5
:103728001B6B43F010031363444B1B6B03F0100334
:103738003B613B690023FB60404A404B1B6B43F0F5
:10374800800313633D4B1B6B03F08003FB60FB6836
:103758000023BB60394A394B1B6B43F001031363E9
:10376800364B1B6B03F00103BB60BB6800237B6017
:10377800324A324B1B6B43F0020313632F4B1B6B14
:1037880003F002037B607B6800233B602B4A2B4BD2
:103798001B6B43F008031363284B1B6B03F00803F0
:1037A8003B603B68264808210022FDF7E9FE2548D2
:1037B8004FF470410022FDF7E3FE08237B610123EB
:1037C800BB610023FB6100233B6207F114031C4823
:1037D8001946FDF73FFD04237B610023BB610023ED
:1037E800FB6107F1140318481946FDF733FD4FF440
:1037F80070437B610123BB610023FB6100233B62B3
:1038080007F114030F481946FDF724FD01237B61D6
:103818000E4BBB610023FB6107F1140308481946EE
:10382800FDF718FD062000210022FDF731F90620DA
:10383800FDF74AF92837BD4680BD00BF0038024071
:1038480000100240000C0240000402400000111069
:1038580080B584B000AF03463960FB711346BB7175
:10386800FB79FB730E4808210022FDF789FE07F15A
:103878000F030C48194601220A23FEF759FBBB79AE
:103888009BB2084839681A460A23FEF751FB0448D8
:1038980008210122FDF774FE1037BD4680BD00BF28
:1038A800001002409800002080B584B000AF0346A5
:1038B8003960FB711346BB71FB7963F07F03DBB2A0
:1038C8003B721A4808210022FDF75AFE07F1080347
:1038D8001748194601220A23FEF72AFBBB799BB237
:1038E80007F10802124811461A460A23FEF752FC4D
:1038F8000E4808210122FDF743FE0023FB730CE06C
:10390800FB7B3A681344FA7B07F110010A4412F86A
:10391800082C1A70FB7B0133FB73FA7BBB7903F02D
:1039280003039A42ECDB1037BD4680BD001002400D
:103938009800002080B582B000AF0023FB71FB79AE
:1039480043F00703DBB2FB71FB7943F04003DBB2C2
:10395800FB71FB1D202019460122FFF779FF002388
:10396800FB71FB7963F03F03DBB2FB71FB7943F03A
:103978000803DBB2FB71FB1D242019460122FFF767
:1039880067FF8823FB71FB1D232019460122FFF7DF
:103998005FFF044808210122FDF7F2FD0837BD4604
:1039A80080BD00BF0010024080B586B000AF7860CF
:1039B80007F11403282019460222FFF775FF7B7DC3
:1039C8009BB21B029AB23B7D9BB213449BB29BB243
:1039D800BB8107F114032A2019460222FFF764FF6E
:1039E8007B7D9BB21B029AB23B7D9BB213449BB278
:1039F8009BB2FB8107F114032C2019460222FFF722
:103A080053FF7B7D9BB21B029AB23B7D9BB2134452
:103A18009BB29BB23B827B681A4607F10C0318687D
:103A280010609B88938078681837BD4680BD00BFBA
:103A380090B58BB002AFFCF7C3FE00F065F8FFF756
:103A480057FEFFF711FE00F005F900F0DBFA284BEE
:103A58001B68274A1268126842F040021A60FFF792
:103A680069FF6420FCF71CFF6420FCF719FF214B59
:103A78001B78012B3BD11F4B00221A701E4C3B4672
:103A88001846FFF791FF22463B46186810609B884E
:103A980093801A484FF48051FDF78AFD07F10C0313
:103AA80000221A60043300221A60043300221A60CC
:103AB800043300221A60043300221A6004330E4BC8
:103AC8001B881AB20C4B5B881CB20B4B9B881BB231
:103AD80007F10C01009308460949234600F0CEFB84
:103AE80007F10C03074819461122FFF76BF8BBE7EB
:103AF800980000209600002090000020000C024052
:103B0800C84A0008B401002080B594B000AF07F19E
:103B1800200300221A60043300221A6004330022B2
:103B28001A60043300221A60043300221A60043336
:103B380000221A60043300221A60043300221A603B
:103B4800043300221A60043300221A60043300226E
:103B58001A60043300221A60043307F10C030022B0
:103B68001A60043300221A60043300221A600433F6
:103B780000221A60043300221A6004330023BB6059
:103B8800274A274B1B6C43F080531364244B1B6C50
:103B980003F08053BB60BB6800237B60214A214B44
:103BA8001B6843F4804313601E4B1B6803F4804377
:103BB8007B607B6802233B620123FB6210233B632B
:103BC8000223BB630023FB6308233B6432237B642B
:103BD8000423BB640723FB6407F120031846FDF7A1
:103BE80019FD0346002B01D000F02EF80F23FB60CF
:103BF80002233B6100237B614FF4A053BB614FF468
:103C0800A053FB6107F10C0318460021FDF740FFA4
:103C18000346002B01D000F017F85037BD4680BD91
:103C2800003802400070004080B483B000AF034603
:103C3800FB80044B01221A700C37BD465DF8047BEB
:103C4800704700BF9600002080B400AFBD465DF805
:103C5800047B704780B500AF174B184A1A60164BA3
:103C68004FF482725A60144B00229A60124B002261
:103C7800DA60114B00221A610F4B00225A610E4B79
:103C88004FF400729A610C4B0022DA610A4B002251
:103C98001A62094B00225A62074B00229A62064BAD
:103CA8000A22DA620448FEF7DFF80346002B01D047
:103CB800FFF7CAFF80BD00BF980000200030014018
:103CC80080B58AB000AF786007F1140300221A604B
:103CD800043300221A60043300221A6004330022DD
:103CE8001A60043300221A6004337B681B684B4A4D
:103CF800934240F0908000233B61494A484B5B6CFB
:103D080043F480535364464B5B6C03F480533B612C
:103D18003B690023FB60424A414B1B6B43F00103A4
:103D280013633F4B1B6B03F00103FB60FB68E0234D
:103D38007B610223BB610023FB6100233B620523F7
:103D48007B6207F1140337481946FDF783FA364BAF
:103D5800364A1A60344B4FF0C0625A60324B002228
:103D68009A60314B0022DA602F4B4FF480621A615F
:103D78002D4B00225A612C4B00229A612A4B0022BB
:103D8800DA61294B00221A62274B00225A62264820
:103D9800FCF7B4FE0346002B01D0FFF755FF7B6804
:103DA800214ADA64204A7B689363214B214A1A60CE
:103DB8001F4B4FF0C0625A601D4B40229A601C4B4B
:103DC8000022DA601A4B4FF480621A61184B002205
:103DD8005A61174B00229A61154B0022DA61144B85
:103DE80000221A62124B00225A621148FCF786FE22
:103DF8000346002B01D0FFF727FF7B680C4A9A6423
:103E08000B4A7B689363232000210022FCF740FEC5
:103E18002320FCF759FE2837BD4680BD00300140FD
:103E28000038024000000240F00000201064024008
:103E3800500100205864024080B582B000AF0023D2
:103E48007B60104A0F4B5B6C43F4804353640D4B0B
:103E58005B6C03F480437B607B6800233B60094A0A
:103E6800084B1B6C43F080531364064B1B6C03F028
:103E780080533B603B680720FCF700FE0837BD46CF
:103E880080BD00BF0038024080B400AFBD465DF879
:103E9800047B704780B400AFFEE700BF80B400AF7A
:103EA800FEE700BF80B400AFFEE700BF80B400AFFC
:103EB800FEE700BF80B400AFBD465DF8047B7047E5
:103EC80080B400AFBD465DF8047B704780B400AF96
:103ED800BD465DF8047B704780B500AFFCF7C2FCB7
:103EE80080BD00BF80B500AF0120FDF77BFB80BD22
:103EF80080B500AF0148FCF735FF80BDF401002014
:103F080080B500AF0148FCF72DFF80BD54020020AA
:103F180080B500AF0148FEF7E5FB80BD98000020A2
:103F280080B500AF0148FEF7BDFE80BDB40100209A
:103F380080B500AF0148FCF715FF80BDF0000020F8
:103F480080B500AF0148FCF70DFF80BD500100208F
:103F580080B584B000AF7860114B1B68002B02D18C
:103F68000F4B104A1A600E4B1B68FB600C4B1A680B
:103F78007B6813446A46934207D900F053F9024616
:103F88000C2313604FF0FF3306E0054B1A687B687B
:103F98001344034A1360FB6818461037BD4680BDBA
:103FA800B0010020C002002080B400AF124A124BBA
:103FB8001B6843F0010313600F4B00229A600E4AFE
:103FC8000D4B1B6823F0847323F4803313600A4B72
:103FD8000A4A5A60084A084B1B6823F48023136076
:103FE800054B0022DA60064B4FF000629A60BD462E
:103FF8005DF8047B704700BF003802401030002491
:1040080000ED00E080B500AF104B114A1A600F4B6D
:104018004FF416525A600D4B00229A600B4B002247
:10402800DA600A4B00221A61084B0C225A61074BCE
:1040380000229A61054B0022DA610448FEF774FDFC
:104048000346002B01D0FFF7FFFD80BDB40100201F
:104058000048004080B58AB000AF786007F11403CB
:1040680000221A60043300221A60043300221A6006
:10407800043300221A60043300221A6004337B6878
:104088001B684C4A934240F0918000233B614A4AA6
:10409800494B1B6C43F480231364474B1B6C03F49C
:1040A80080233B613B690023FB60434A424B1B6B07
:1040B80043F002031363404B1B6B03F00203FB60E6
:1040C800FB684FF440637B610223BB610123FB6102
:1040D80003233B6207237B6207F114033748194621
:1040E800FDF7B8F8364B374A1A60354B4FF0006287
:1040F8005A60334B00229A60314B0022DA60304B11
:104108004FF480621A612E4B00225A612C4B002218
:104118009A612B4B0022DA61294B00221A62284B44
:1041280000225A622648FCF7E9FC0346002B01D01E
:10413800FFF78AFD7B68224A5A63214A7B689363AA
:10414800214B224A1A60204B4FF000625A601E4BE6
:1041580040229A601C4B0022DA601B4B4FF48062AD
:104168001A61194B00225A61174B00229A61164BAB
:104178000022DA61144B00221A62134B00225A62A1
:104188001148FCF7BBFC0346002B01D0FFF75CFD90
:104198007B680D4A1A630C4A7B68936327200021C9
:1041A8000022FCF775FC2720FCF78EFC2837BD465B
:1041B80080BD00BF004800400038024000040240B3
:1041C800F401002028600240540200205860024098
:1041D800DFF834D0002103E00C4B5B584350043126
:1041E8000B480C4B42189A42F6D30B4A02E00023C4
:1041F80042F8043B094B9A42F9D3FFF7D5FE00F089
:1042080017F8FFF715FC7047000002203C4B000828
:10421800000000207000002070000020C002002074
:10422800FEE70000014B1868704700BF6C000020D3
:1042380070B50E4B0E4CE41AA41000251E46A5427C
:1042480004D056F8253098470135F8E700F02CFCE3
:10425800084C094BE41AA41000251E46A54204D0B8
:1042680056F8253098470135F8E770BD344B0008FB
:10427800344B0008384B0008344B00080EB400B526
:104288009CB04FF40271ADF814106FF00041049126
:1042980007914FF6FF711DABADF81610084953F89A
:1042A800042B029006900868019302A900F064F8B4
:1042B800029B00221A701CB05DF804EB03B0704733
:1042C8006C0000202DE9F0478E68B34282460C4608
:1042D8009046994640D38A8912F4906F3AD025685F
:1042E80009696F1A6569022305EB450595FBF3F526
:1042F8007B1C4B449D4238BF1D4653050FD52946AC
:1043080000F03CFB064698B121693A4600F0CBFA2A
:10431800A38923F4906343F08003A38113E02A4622
:1043280000F082FB064670B95046216900F0E2FAB7
:104338000C23CAF80030A38943F04003A3814FF04F
:10434800FF30BDE8F087266165613E44ED1B2660BD
:10435800A5604E46B14500D24E46324620684146D9
:1043680000F0ACFAA3689B1BA36023681E44266078
:104378000020BDE8F08700002DE9F0439DB0064617
:1043880003938B891C060D4690460CD50B6953B9CF
:10439800402100F0F3FA2860286110B90C2333603B
:1043A800CCE040236B610023099320238DF829304A
:1043B80030238DF82A3043461C4613F8012B1AB9CE
:1043C800B4EB08090FD002E0252AF5D1F8E730460A
:1043D800294642464B46FFF775FF013000F0A98099
:1043E800099B4B4409932378002B00F0A2800023FB
:1043F8004FF0FF3204930793059206938DF85330DC
:104408001A9304F101084446DFF848912178484698
:10441800052200F039FA08F10108049B30B1C9EB14
:1044280000000122824013430493ECE7D80644BFFE
:1044380020228DF85320190744BF2B228DF85320D2
:1044480022782A2A02D0079923460EE0039A111DE2
:1044580012680391002ABBBF524243F0020307923D
:104468000792B8BF049301340AE01C46013322784E
:10447800303A092A03D80A2000FB0121F5E7079101
:1044880023782E2B1AD163782A2B0AD1039B1A1D65
:104498001B680392002BB8BF4FF0FF33023405931B
:1044A8000CE0611C00220C4601312378303B092BBB
:1044B80003D80A2000FB0232F5E70592DFF898805E
:1044C80021784046032200F0DFF938B1049AC8EB9E
:1044D80000004023834013430493013421781A4891
:1044E8008DF82810062204F1010800F0CDF988B1F2
:1044F800164B33B9039B073323F0070308330393A1
:1045080013E003AB0093304604A92A46104BAFF3DF
:10451800008007E003AB0093304604A92A460C4B01
:1045280000F092F8421C074603D0099B3B440993CC
:1045380041E7AB895B0601D4099801E04FF0FF30F1
:104548001DB0BDE8F08300BF004B0008000000006C
:10455800CD420008F64A0008FC4A00082DE9F84355
:1045680091461F468A680B69DDF820809342B8BFE0
:104578001346C9F8003091F8432006460C4612B19C
:104588000133C9F800302368990642BFD9F80030D2
:104598000233C9F80030256815F006051CD094F8D8
:1045A80043302268003318BF012392061FD5E11853
:1045B8005A1C302081F84300224494F8451082F8B0
:1045C8004310023313E03046394604F1190201233F
:1045D800C047013007D00135E368D9F800209B1A9D
:1045E8009D42F0DBDBE74FF0FF30BDE8F883304653
:1045F800394604F14302C0470130F4D02268D9F8A3
:104608000050E36802F00602042A08BF5D1B226915
:10461800A3680CBF25EAE57500259342C4BF9B1A21
:10462800ED184FF00009A9450ADA3046394604F179
:104638001A020123C0470130D5D009F10109F2E778
:104648000020BDE8F88300002DE9FF410C4617461D
:10465800227E6E2A984606460A9B01F1430100F025
:10466800AF8012D8632A23D00AD8002A00F0BC8071
:10467800582A40F0CB8084F84520DFF804E257E060
:10468800642A1ED0692A1CD0C0E0732A00F0B080CA
:1046980009D86F2A2ED0702A40F0B880226842F0DC
:1046A800200222603FE0752A24D0782A3BD0ADE072
:1046B8001A68111D1960136884F8423004F1420524
:1046C800A8E020681A6810F0800F02D0101D18604A
:1046D80008E010F0400F02F10400186002D0B2F9AF
:1046E800003000E01368002B3EDA2D225B4284F88C
:1046F800432039E020681A6810F0800F02D0101D9E
:10470800186007E010F0400F02F10400186001D0B3
:10471800138800E01368227EDFF864E16F2A0CBF7B
:1047280008220A221CE07822DFF858E184F84520A4
:104738002268186812F0800F00F104051D6003D18B
:10474800550601D5038800E00368D00744BF42F04E
:10475800200222601BB9226822F020022260102267
:10476800002084F8430002E0DFF814E10A226568BB
:10477800A560002DA2BF206820F00400206003B9C6
:1047880065B10D46B3FBF2F002FB10331EF803309F
:1047980005F8013D03460028F4D100E00D46082A3B
:1047A8000BD12368DA0708D5236962689A42DEBF0D
:1047B800302305F8013C05F1FF35491B21612EE046
:1047C80025681A68606915F0800F03D0151D1D60F3
:1047D800136808E015F0400F02F104051D60136826
:1047E80001D0188000E01860002323610D4616E010
:1047F8001A68111D1960156862682846002100F0C2
:1048080043F808B1401B6060636804E004F14205A6
:1048180084F8422001232361002384F84330CDF833
:1048280000803046214603AA3B46FFF797FE013039
:1048380002D14FF0FF301FE0304639462A4623693F
:10484800C0470130F5D023689B0705D4E068039B77
:104858009842B8BF18460FE00025E368039A9B1AF0
:104868009D42F3DA3046394604F119020123C04764
:104878000130DED00135F0E704B0BDE8F08100BFBB
:10488800074B0008184B000810B5C9B20244904203
:10489800034606D01C788C4200F10100F7D1184677
:1048A80010BD002010BD10B5431E0A44914204D02B
:1048B80011F8014B03F8014FF8E710BD814210B51C
:1048C80001EB020301D3421E0BE09842FBD2811890
:1048D800D21AD34204D013F8014D01F8014DF8E77C
:1048E80010BD994204D011F8014B02F8014FF8E7C6
:1048F80010BD000030B500293DD051F8042C0B1F25
:104908001D49002AB8BF9B180A680C4612B95A609C
:104918000B6030BD93420DD219685818904201BF00
:104928005A5852181A6042685A60236030BD99423A
:1049380003D80A4651680029F9D1146815199D420F
:104948000AD11B682344D0188842136013D1086821
:10495800034413604B680DE002D90C23036030BD9B
:104968001C681819884204BF08684968596004BF60
:1049780000191860536030BDB802002070B5CC1C17
:1049880024F0030408340C2C38BF0C24002C0646F1
:1049980003DA0C233360002070BD8C42F9D3204A1F
:1049A800136810461946A1B10A68121B0ED40B2AC7
:1049B80003D90A608B188C501FE08B420DBF5A68D0
:1049C8004A685A60026018BF0B4616E00B464968F1
:1049D800E9E7144D2B681BB9304600F04BF8286006
:1049E8003046214600F046F8421C0346D1D0C51C8B
:1049F80025F0030585420AD11C6003F10B001A1D3E
:104A080020F00700821A0AD05142995070BD3046F2
:104A1800E91A00F02FF80130BBD02B46ECE770BD47
:104A2800B8020020B4020020F8B5074615460E4625
:104A380021B91146BDE8F840FFF7A0BF1AB9FFF742
:104A480059FF2846F8BD00F025F8A8420ED238468E
:104A58002946FFF793FF044650B131462A46FFF72F
:104A680022FF38463146FFF745FF01E03046F8BDE2
:104A78002046F8BD38B5064C002305460846236095
:104A8800FFF766FA431C02D1236803B12B6038BDD7
:104A9800BC02002051F8040C0028BEBF091851F8C8
:104AA800043CC01804387047F8B500BFF8BC08BC0F
:104AB8009E467047F8B500BFF8BC08BC9E467047D4
:104AC8002564202564202564200A000000061016AD
:104AD8000006101600000000000000000102030498
:104AE8000607080900000000010203044300232D03
:104AF800302B2000686C4C006566674546470030DF
:104B0800313233343536373839414243444546002B
:104B1800303132333435363738396162636465662B
:044B28000000000089
:084B2C0094B7FF7F01000000B7
:044B3400F50100087F
:044B3800CD010008A3
:104B3C0010000000010000000024F4000000000040
:104B4C000000000000000000000000000000000059
:104B5C00000000000000000000000000F44A000803
:104B6C000000000000000000000000000000000039
:104B7C000000000000000000000000000000000029
:104B8C000000000000000000000000000000000019
:104B9C000000000000000000000000000C000020DD
:04000005080041D9D5
:00000001FF
