:020000040800F2
:1000000000000220F9330008753100088131000832
:100010008931000891310008993100080000000082
:10002000000000000000000000000000A1310008F6
:10003000AD31000800000000B9310008C5310008EA
:10004000493400084934000849340008493400089C
:10005000493400084934000849340008493400088C
:10006000493400084934000849340008493400087C
:10007000493400084934000849340008493400086C
:10008000D1310008493400084934000849340008D7
:10009000493400084934000849340008493400084C
:1000A000493400084934000849340008493400083C
:1000B000493400084934000849340008493400082C
:1000C000493400084934000849340008493400081C
:1000D000493400084934000849340008E131000877
:1000E00049340008493400084934000849340008FC
:1000F00049340008493400084934000849340008EC
:1001000049340008493400084934000849340008DB
:1001100049340008493400084934000849340008CB
:1001200049340008493400084934000849340008BB
:1001300049340008493400084934000849340008AB
:10014000493400084934000849340008493400089B
:10015000493400084934000849340008493400088B
:10016000493400084934000849340008493400087B
:1001700049340008493400084934000800000000F0
:0801800049340008493400086D
:10018800044B05481B1A062B02D9044B03B1184728
:10019800704700BF0F0000200C0000200000000086
:1001A80005490648091A891001EBD171491002D096
:1001B800034B03B1184770470C0000200C000020C7
:1001C8000000000010B5064C237843B9FFF7D8FFAC
:1001D800044B13B10448AFF300800123237010BD12
:1001E8000C000020000000009834000808B5084BF7
:1001F8001BB108480849AFF300800848036813B9E1
:10020800BDE80840CCE7064B002BF9D09847F7E744
:100218000000000098340008100000200C000020A6
:100228000000000053B94AB9002908BF00281CBFC4
:100238004FF0FF314FF0FF3000F03CB882B0EC4691
:100248002DE9005000F01EF8DDF804E002B00CBC07
:10025800704700BF2DE9F041069C154606460F463B
:10026800984600F029F805FB01F300FB0838A5FBC8
:100278000023B21A434467EB0303C4E90023BDE833
:10028800F08100BF2DE9F041069C904606460F46D6
:100298001D4600F05FF900FB05F5A0FB082308FBED
:1002A8000155B21A2B4467EB0303C4E90023BDE8E8
:1002B800F08100BF704700BF00292DE9F043C0F26C
:1002C800A6800026002BC0F29C80884694469E4655
:1002D800154604460F46002B3DD18A4259D9B2FA39
:1002E80082F33BB1C3F120029F4020FA02F29D4005
:1002F80017439C40290C220CB7FBF1FEA8B201FB66
:100308001E7742EA074700FB0EF3BB420AD97F1962
:100318000EF1FF3280F00581BB4240F20281AEF15E
:10032800020E2F44FF1AA4B2B7FBF1F301FB1377B7
:1003380044EA074700FB03F0B84208D97F1903F1E4
:10034800FF3280F0F080B84240F2ED80023B43EA91
:100358000E43002203E08B420FD900221346341CBF
:1003680018BF012460424FF0000565EB4501584075
:10037800514000196941BDE8F083B3FA83F2002ABD
:1003880040F086808B4202D3844500F2DB80012353
:10039800E5E712B90123B3FBF2F5B5FA85F00028B9
:1003A8003BD1781B4FEA154E1FFA85FC0122B0FBA2
:1003B800FEF8210C0EFB180741EA07470CFB08F36F
:1003C800BB4207D97F1908F1FF3102D2BB4200F2C4
:1003D800BD808846FF1AA4B2B7FBFEF30EFB137765
:1003E80044EA07470CFB03FCBC4507D97F1903F116
:1003F800FF3102D2BC4500F2A7800B4643EA08430E
:10040800ADE752426FEA060663EB43035DE74042FD
:1004180061EB41014FF0FF3654E7C0F1200224FAA6
:1004280002F107FA00F385404FEA154ED740194309
:10043800B7FBFEF20B0C0EFB12771FFA85FC43EAA2
:1004480007430CFB02F79F4204FA00F407D95B1933
:1004580002F1FF3074D29F4272D9023A2B44DF1B5B
:1004680089B2B7FBFEF80EFB187341EA03430CFB95
:1004780008F79F4208D95B1908F1FF315CD29F4207
:100488005AD9A8F102082B44D81B48EA02428EE741
:10049800C2F120032CFA03F10EFA02FE20FA03F748
:1004A80041EA0E0E08FA02F028FA03F14FEA1E4557
:1004B8003843B1FBF5F8030C05FB18111FFA8EF74A
:1004C80043EA014107FB08F38B420CFA02FC09D905
:1004D80011EB0E0108F1FF3930D28B422ED9A8F169
:1004E80002087144C91A80B2B1FBF5F305FB131178
:1004F80040EA014107FB03F78F4208D911EB0E01CF
:1005080003F1FF3016D28F4214D9023B714443EAFB
:100518000843C91BA3FB0C89494509D305D0002210
:100528001DE79646FEE6134611E794404445F6D289
:10053800013BF4E70346EAE78846A5E7C846D1E762
:1005480002468CE713460AE7023B57E7A8F1020880
:100558002F443FE72DE9F041002B44D18A4215464C
:1005680004464FD9B2FA82F70E464FB1C7F12003BD
:10057800B94020FA03F602FA07F50E4300FA07F429
:100588004FEA154E230CB6FBFEF0AFB20EFB10611E
:1005980043EA014307FB00F1994209D95B1900F1CD
:1005A800FF3280F0EC80994240F2E98002382B4417
:1005B8005A1AA4B2B2FBFEF30EFB132244EA02421B
:1005C80007FB03F7974208D9521903F1FF3180F06E
:1005D800D880974240F2D580023B43EA004000268B
:1005E8003146BDE8F0818B4247D8B3FA83F6002E36
:1005F80048D18B4202D3824200F2CD80012031469D
:10060800BDE8F08112B90125B5FBF2F5B5FA85F818
:10061800B8F1000F77D14A1B4FEA154EAFB2012649
:10062800B2FBFEF0230C0EFB102143EA014107FB4D
:1006380000F38B4207D9491900F1FF3202D28B42ED
:1006480000F2BA801046C91AA4B2B1FBFEF30EFB41
:10065800131144EA014407FB03F7A74208D96419B8
:1006680003F1FF3280F08F80A74240F28C80023B7A
:1006780043EA00403146BDE8F08100263046314665
:10068800BDE8F081C6F1200422FA04F5B3402B43FB
:1006980020FA04FC01FA06F721FA04F54FEA134E92
:1006A8004CEA0707B5FBFEF8390C0EFB18551FFA84
:1006B80083FC41EA05450CFB08F1A94202FA06F25F
:1006C80004D9ED1808F1FF3467D3A0466D1ABFB2FC
:1006D800B5FBFEF40EFB145547EA05410CFB04FC80
:1006E8008C4504D9C91804F1FF355CD32C4644EA7B
:1006F8000844CCEB0101A4FB0223994248D344D01F
:10070800204600266CE7C8F1200401FA08F305FA30
:1007180008F520FA04F7E1404FEA154E1F43B1FBF4
:10072800FEF63A0C0EFB16111FFA85FC42EA01434D
:100738000CFB06F29A4200FA08F407D95B1906F195
:10074800FF3137D29A4235D9023E2B449B1ABFB2A9
:10075800B3FBFEF00EFB103347EA03430CFB00F13A
:10076800994207D95B1900F1FF3221D299421FD96A
:1007780002382B445A1A40EA0646674650E71046A4
:1007880016E70B4629E7134672E7B0409042B7D206
:10079800601E002624E7304622E7A94295D9A8F131
:1007A80002081D4492E78C45A0D9023C19449EE7F3
:1007B8001046DFE70E46C9E70238294443E700BF81
:1007C80080B500AF0E4A0E4B1B6843F400731360EC
:1007D8000B4A0B4B1B6843F480631360084A084BB1
:1007E8001B6843F480731360032000F025F9002090
:1007F80000F008F802F094FC0023184680BD00BF02
:10080800003C024080B582B000AF7860124B1A6895
:10081800124B1B7819464FF47A73B3FBF1F3B2FB12
:10082800F3F3184600F03CF90346002B01D00123EE
:100838000EE07B680F2B0AD84FF0FF307968002252
:1008480000F004F9064A7B681360002300E00123E6
:1008580018460837BD4680BD080000200400002067
:100868000000002080B400AF054B1B781A46054BEA
:100878001B681344034A1360BD465DF8047B704748
:10088800040000202800002080B400AF034B1B6840
:100898001846BD465DF8047B704700BF280000205D
:1008A80080B485B000AF78607B6803F00703FB6015
:1008B8000C4BDB68BB60BA684FF6FF031340BB60A4
:1008C800FB681A02BB68134343F0BF6343F4003369
:1008D800BB60044ABB68D3601437BD465DF8047B2F
:1008E800704700BF00ED00E080B400AF044BDB6848
:1008F80003F4E0631B0A1846BD465DF8047B7047A5
:1009080000ED00E080B483B000AF0346FB7197F9B7
:100918000730002B0BDB084997F907305B09FA7998
:1009280002F01F02012000FA02F241F823200C37DE
:10093800BD465DF8047B704700E100E080B483B0F9
:1009480000AF03463960FB7197F90730002B0ADBCB
:100958000D4997F907303A68D2B21201D2B20B4466
:1009680083F800230AE00949FB7903F00F03043BED
:100978003A68D2B21201D2B20B441A760C37BD468D
:100988005DF8047B704700BF00E100E000ED00E087
:1009980080B489B000AFF860B9607A60FB6803F092
:1009A8000703FB61FB69C3F10703042B28BF04237A
:1009B800BB61FB690433062B02D9FB69033B00E0EA
:1009C80000237B61BB69012202FA03F35A1EBB684C
:1009D8001A407B699A407B69012101FA03F3591E89
:1009E8007B680B40134318462437BD465DF8047BEB
:1009F800704700BF80B582B000AF78607B68013B6C
:100A0800B3F1807F01D301230FE00A4A7B68013BE1
:100A180053604FF0FF300F21FFF790FF054B002286
:100A28009A60044B07221A60002318460837BD460F
:100A380080BD00BF10E000E080B582B000AF7860F4
:100A48007868FFF72DFF0837BD4680BD80B586B0B2
:100A580000AF0346B9607A60FB7300237B61FFF740
:100A680043FF78617869B9687A68FFF791FF0246B1
:100A780097F90F3018461146FFF760FF1837BD4643
:100A880080BD00BF80B582B000AF0346FB7197F907
:100A980007301846FFF736FF0837BD4680BD00BF50
:100AA80080B582B000AF78607868FFF7A3FF03468F
:100AB80018460837BD4680BD80B582B000AF786063
:100AC8007B68002B01D1012314E07B681B79DBB222
:100AD800002B05D17B6800225A71786802F05CF916
:100AE8007B6802221A717B6800221A617B680122E6
:100AF8001A71002318460837BD4680BD80B485B0FA
:100B080000AF786039600023FB600023BB607B681E
:100B18005B79012B01D1022351E07B6801225A71D4
:100B28007B6802221A717B681B687A6812681168F0
:100B38003A68012000FA02F20A431A603B68002B67
:100B48001AD17B681B681B6803F00403FB607B6891
:100B58001B681B6803F03803BB60FB68042B27D1B4
:100B6800BB68382B24D17B681B687A681268526886
:100B780042F001025A601BE07B681B681B6803F4A3
:100B88008023FB607B681B681B6803F46013BB60F1
:100B9800FB68B3F5802F0BD1BB68B3F5601F07D195
:100BA8007B681B687A681268526842F002025A60D1
:100BB8007B6801221A717B6800225A71002318464B
:100BC8001437BD465DF8047B704700BF80B586B01A
:100BD80000AFF860B9607A603B6000237B61FB6816
:100BE8005B79012B01D1022394E0FB6801225A7141
:100BF800FB6802221A71BB68002B2BD1FB689B682B
:100C0800464ADA63FB689B68454A1A64FB689B6836
:100C1800444ADA64FB681B68FA681268126842F48E
:100C280080521A603B6A042B09D0082B0CD0002B89
:100C380000D00EE0FB681B6808337B6109E0FB68A5
:100C48001B680C337B6104E0FB681B6810337B6115
:100C580000BF2AE0FB68DB68334ADA63FB68DB68BD
:100C6800324A1A64FB68DB68314ADA64FB681B683D
:100C7800FA681268126842F080521A603B6A042BC4
:100C880009D0082B0CD0002B00D00EE0FB681B68A5
:100C980014337B6109E0FB681B6818337B6104E04F
:100CA800FB681B681C337B6100BFBB68002B11D13C
:100CB800FB681B68FA681268126842F400521A60EE
:100CC800FB689A687B68104619467A693B6800F0A9
:100CD800D3F910E0FB681B68FA681268126842F0E2
:100CE80000521A60FB68DA687B68104619467A6910
:100CF8003B6800F0C1F9FB681B68FA681268116864
:100D0800BA68012000FA02F20A431A60FB6800225E
:100D18005A71002318461837BD4680BD150E0008C5
:100D2800350E0008510E0008B90E0008D90E00084B
:100D3800F50E000880B483B000AF78600C37BD466C
:100D48005DF8047B704700BF80B483B000AF786063
:100D58000C37BD465DF8047B704700BF80B483B094
:100D680000AF78600C37BD465DF8047B704700BF64
:100D780080B487B000AFF860B9607A6000237B6107
:100D880000233B61FB685B79012B01D1022336E02C
:100D9800FB6801225A71FB6802221A71FB681B6802
:100DA8001B687B617B6840F6FE7202FA03F3DB4343
:100DB8007A6913407B61BB681A68BB685B68134338
:100DC8003B617B683A6902FA03F37A6913437B61F2
:100DD800FB681B687A691A60FB681B68FA68126806
:100DE80011687A68C02000FA02F2D2430A401A60F9
:100DF800FB6801221A71FB6800225A710023184609
:100E08001C37BD465DF8047B704700BF80B584B0D1
:100E180000AF78607B689B6BFB60F868FFF78AFF20
:100E2800FB6801221A711037BD4680BD80B584B0B9
:100E380000AF78607B689B6BFB60F868FFF784FF06
:100E48001037BD4680BD00BF80B584B000AF786064
:100E58007B689B6BFB60FB681B6943F00402FB68C3
:100E68001A61F868FFF77AFFFB6801221A711037D8
:100E7800BD4680BD80B483B000AF78600C37BD46F6
:100E88005DF8047B704700BF80B483B000AF786022
:100E98000C37BD465DF8047B704700BF80B483B053
:100EA80000AF78600C37BD465DF8047B704700BF23
:100EB80080B584B000AF78607B689B6BFB60F86896
:100EC800FFF7D8FFFB6801221A711037BD4680BDB5
:100ED80080B584B000AF78607B689B6BFB60F86876
:100EE800FFF7D2FF1037BD4680BD00BF80B584B084
:100EF80000AF78607B689B6BFB60FB681B6943F005
:100F08000402FB681A61F868FFF7C8FFFB68012252
:100F18001A711037BD4680BD80B586B000AF7860C5
:100F280000237B61FFF7B0FC38617B68002B01D19F
:100F380001239BE07B68002283F834207B6802222F
:100F480083F835207B681B687A681268126822F07B
:100F580001021A600FE0FFF797FC02463B69D31ABB
:100F6800052B08D97B6820225A657B68032283F801
:100F7800352003237AE07B681B681B6803F00103B4
:100F8800002BE8D17B681B681B687B617A69394B49
:100F980013407B617B685A687B689B681A437B684F
:100FA800DB681A437B681B691A437B685B691A43D1
:100FB8007B689B691A437B68DB691A437B681B6AF9
:100FC80013437A6913437B617B685B6A042B07D1FF
:100FD8007B68DA6A7B681B6B13437A6913437B610E
:100FE8007B681B687A691A607B681B685B697B6130
:100FF8007B6923F007037B617B685B6A7A6913432B
:101008007B617B685B6A042B17D17B689B6A7A6972
:1010180013437B617B68DB6A002B0ED0786800F095
:10102800B1FA0346002B08D07B6840225A657B68DA
:10103800012283F83520012318E07B681B687A6950
:101048005A61786800F068FA0346FB607B68DB6DDC
:101058001A463F2303FA02F2FB689A607B68002273
:101068005A657B68012283F8352000231846183713
:10107800BD4680BD3F8010F080B586B000AFF860F7
:10108800B9607A603B600023FB75FB689B6D3B6130
:10109800FB6893F83430012B01D102234AE0FB6846
:1010A800012283F83420FB6893F83530DBB2012B3A
:1010B80039D1FB68022283F83520FB6800225A6583
:1010C800F868B9687A683B6800F0F8F9FB68DB6D86
:1010D8001A463F2303FA02F23B699A60FB681B68D1
:1010E800FA681268126842F016021A60FB681B68F8
:1010F800FA681268526942F080025A61FB681B6CF8
:10110800002B07D0FB681B68FA681268126842F067
:1011180008021A60FB681B68FA681268126842F0D5
:1011280001021A6005E0FB68002283F834200223DC
:10113800FB75FB7D18461837BD4680BD80B483B06B
:1011480000AF78607B6893F83530DBB2022B04D0AF
:101158007B6880225A6501230CE07B68052283F8AE
:1011680035207B681B687A681268126822F00102D1
:101178001A60002318460C37BD465DF8047B70479B
:1011880080B586B000AF78600023BB60994B1B68C0
:10119800994AA2FB03239B0A7B617B689B6D3B6199
:1011A8003B691B68FB607B68DB6D1A46082303FA02
:1011B80002F2FB681340002B1CD07B681B681B687D
:1011C80003F00403002B15D07B681B687A6812684B
:1011D800126822F004021A607B68DB6D1A46082345
:1011E80003FA02F23B699A607B685B6D43F0010287
:1011F8007B685A657B68DB6D1A46012303FA02F2A5
:10120800FB681340002B14D07B681B685B6903F0F4
:101218008003002B0DD07B68DB6D1A46012303FA8F
:1012280002F23B699A607B685B6D43F002027B685F
:101238005A657B68DB6D1A46042303FA02F2FB68E1
:101248001340002B14D07B681B681B6803F0020353
:10125800002B0DD07B68DB6D1A46042303FA02F2DB
:101268003B699A607B685B6D43F004027B685A6552
:101278007B68DB6D1A46102303FA02F2FB68134001
:10128800002B45D07B681B681B6803F00803002B04
:101298003ED07B68DB6D1A46102303FA02F23B69E5
:1012A8009A607B681B681B6803F48023002B18D0A6
:1012B8007B681B681B6803F40023002B08D17B683C
:1012C8001B6C002B24D07B681B6C786898471FE048
:1012D8007B689B6C002B1BD07B689B6C786898475D
:1012E80016E07B681B681B6803F48073002B07D12A
:1012F8007B681B687A681268126822F008021A6014
:101308007B681B6C002B03D07B681B6C7868984744
:101318007B68DB6D1A46202303FA02F2FB68134050
:10132800002B00F093807B681B681B6803F0100398
:10133800002B00F08B807B68DB6D1A46202303FAB4
:1013480002F23B699A607B6893F83530DBB2052B73
:1013580039D17B681B687A681268126822F0160215
:101368001A607B681B687A681268526922F08002EA
:101378005A617B681B6C002B03D17B689B6C002B2C
:1013880007D07B681B687A681268126822F0080226
:101398001A607B68DB6D1A463F2303FA02F23B6949
:1013A8009A607B68002283F834207B68012283F8E6
:1013B80035207B681B6D002B04D07B681B6D78681B
:1013C800984777E076E07B681B681B6803F4802306
:1013D800002B1CD07B681B681B6803F40023002BC0
:1013E8000CD17B685B6C002B30D07B685B6C7868B9
:1013F80098472BE008000020B5814E1B7B68DB6B0B
:10140800002B23D07B68DB6B786898471EE07B68ED
:101418001B681B6803F48073002B0FD17B681B6863
:101428007A681268126822F010021A607B6800223B
:1014380083F834207B68012283F835207B68DB6BD6
:10144800002B03D07B68DB6B786898477B685B6D03
:10145800002B2FD07B685B6D03F00103002B21D09C
:101468007B68052283F835207B681B687A681268D8
:10147800126822F001021A60BB680133BB607A6906
:10148800934200D906E07B681B681B6803F00103E0
:10149800002BF1D17B68002283F834207B6801227D
:1014A80083F835207B68DB6C002B03D07B68DB6C12
:1014B800786898471837BD4680BD00BF80B485B0AE
:1014C80000AFF860B9607A603B60FB681B68FA6837
:1014D8001268126822F480221A60FB681B683A6856
:1014E8005A60FB689B68402B08D1FB681B687A68C8
:1014F8009A60FB681B68BA68DA6007E0FB681B68DB
:10150800BA689A60FB681B687A68DA601437BD4667
:101518005DF8047B704700BF80B485B000AF786089
:101528007B681B68DBB2103B144AA2FB03231B0930
:10153800FB60134AFB6813441B781A467B68DA651C
:10154800FB68032B09D97B681B6823F47F7323F09E
:1015580003031A1D7B689A6507E07B681B6823F400
:101568007F7323F003037A6893657B689B6D184645
:101578001437BD465DF8047B704700BFABAAAAAA22
:10158800B034000880B485B000AF78600023FB73E6
:101598007B689B6ABB607B689B69002B23D1BB6817
:1015A800032B1ED801A252F823F000BFC51500086E
:1015B800D9150008C5150008EB1500087B68DB6A1B
:1015C80003F08073002B02D00123FB730AE009E0CB
:1015D8007B68DB6AB3F1C07F02D10123FB7301E0B2
:1015E80000E000BF3DE07B689B69B3F5005F25D153
:1015F800BB68032B20D801A252F823F01516000867
:101608001B160008151600082F1600080123FB7387
:1016180013E07B68DB6A03F08073002B02D00123A0
:10162800FB730AE009E07B68DB6AB3F1C07F02D193
:101638000123FB7301E000E000BF12E0BB68022B4E
:1016480002D9032B03D00CE00123FB7309E07B686C
:10165800DB6A03F08073002B02D00123FB73FFE7E2
:1016680000BFFB7B18461437BD465DF8047B704706
:1016780080B489B000AF7860396000237B610023B3
:101688003B610023BB610023FB6167E1FB69012229
:1016980002FA03F37B613B681A687B6913403B617C
:1016A8003A697B699A4240F056813B685B68022B35
:1016B80003D03B685B68122B22D1FB69DA087B6890
:1016C800083253F82230BB61FB6903F007039B0023
:1016D8001A460F239340DB43BA691340BB613B684A
:1016E8001B69FA6902F0070292009340BA69134332
:1016F800BB61FB69DA087B680832B96943F82210D4
:101708007B681B68BB61FB695B001A460323934037
:10171800DB43BA691340BB613B685B6803F00303B2
:10172800FA6952009340BA691343BB617B68BA698E
:101738001A603B685B68012B0BD03B685B68022B27
:1017480007D03B685B68112B03D03B685B68122BA2
:101758002FD17B689B68BB61FB695B001A4603233A
:101768009340DB43BA691340BB613B68DB68FA69A5
:1017780052009340BA691343BB617B68BA699A60A7
:101788007B685B68BB61FB69012202FA03F3DB43F8
:10179800BA691340BB613B685B6803F010031A0920
:1017A800FB6902FA03F3BA691343BB617B68BA6940
:1017B8005A607B68DB68BB61FB695B001A460323E0
:1017C8009340DB43BA691340BB613B689B68FA6985
:1017D80052009340BA691343BB617B68BA69DA6007
:1017E8003B685B6803F08053002B00F0B480002353
:1017F800FB605F4A5E4B5B6C43F4804353645C4B15
:101808005B6C03F48043FB60FB685A4AFB699B08E6
:10181800023352F82330BB61FB6903F003039B00DA
:101828001A460F239340DB43BA691340BB617B68B8
:10183800514A93422BD07B68504A934225D07B680B
:101848004F4A93421FD07B684E4A934219D07B6817
:101858004D4A934213D07B684C4A93420DD07B6823
:101868004B4A934207D07B684A4A934201D10723E7
:101878000EE008230CE006230AE0052308E0042311
:1018880006E0032304E0022302E0012300E0002332
:10189800FA6902F0030292009340BA691343BB61EC
:1018A8003449FB699B080233BA6941F823203A4B53
:1018B8001B68BB613B69DB43BA691340BB613B688A
:1018C8005B6803F48033002B03D0BA693B69134388
:1018D800BB61314ABB6913602F4B5B68BB613B69D5
:1018E800DB43BA691340BB613B685B6803F40033B0
:1018F800002B03D0BA693B691343BB61264ABB6915
:101908005360254B9B68BB613B69DB43BA69134055
:10191800BB613B685B6803F48013002B03D0BA6992
:101928003B691343BB611C4ABB6993601A4BDB6874
:10193800BB613B69DB43BA691340BB613B685B68C9
:1019480003F40013002B03D0BA693B691343BB614E
:10195800114ABB69D360FB690133FB61FB690F2B3B
:101968007FF694AE2437BD465DF8047B704700BF10
:1019780000380240003801400000024000040240E4
:1019880000080240000C024000100240001402400F
:1019980000180240001C0240003C014080B483B0A3
:1019A80000AF78600B467B8013467B707B78002BFA
:1019B80003D07A887B689A6103E07B881A047B6885
:1019C8009A610C37BD465DF8047B704780B586B0D8
:1019D80000AF78607B68002B01D101232AE27B6885
:1019E8001B6803F00103002B73D0A64B9B6803F020
:1019F8000C03042B0BD0A34B9B6803F00C03082BA0
:101A080012D1A04B5B6803F48003002B0CD09D4BD4
:101A18001B6803F40033002B05D07B685B68002B40
:101A280001D1012306E254E07B685B68B3F5803F8F
:101A380006D1944A934B1B6843F4803313601DE02E
:101A48007B685B68B3F5A02F0CD18E4A8D4B1B6861
:101A580043F4802313608B4A8A4B1B6843F480331A
:101A680013600BE0874A874B1B6823F480331360AD
:101A7800844A844B1B6823F4802313607B685B686B
:101A8800002B13D0FEF700FF386108E0FEF7FCFEDC
:101A980002463B69D31A642B01D90323CAE1794B67
:101AA8001B6803F40033002BF0D012E0FEF7ECFEC5
:101AB800386108E0FEF7E8FE02463B69D31A642B5A
:101AC80001D90323B6E16F4B1B6803F40033002BE5
:101AD800F0D17B681B6803F00203002B63D0694BCD
:101AE8009B6803F00C03002B0BD0664B9B6803F03C
:101AF8000C03082B1CD1634B5B6803F48003002B99
:101B080016D1604B1B6803F00203002B05D07B68DD
:101B1800DB68012B01D001238CE15A49594B1B6822
:101B280023F0F8027B681B69DB0013430B603AE083
:101B38007B68DB68002B20D0534B01221A60FEF72C
:101B4800A3FE386108E0FEF79FFE02463B69D31A00
:101B5800022B01D903236DE14A4B1B6803F00203F2
:101B6800002BF0D04749474B1B6823F0F8027B68ED
:101B78001B69DB0013430B6015E0434B00221A601E
:101B8800FEF782FE386108E0FEF77EFE02463B69FA
:101B9800D31A022B01D903234CE13A4B1B6803F0FB
:101BA8000203002BF0D17B681B6803F00803002BAD
:101BB80030D07B685B69002B16D0344B01221A6049
:101BC800FEF762FE386108E0FEF75EFE02463B69FA
:101BD800D31A022B01D903232CE12A4B5B6F03F0A4
:101BE8000203002BF0D015E0284B00221A60FEF704
:101BF8004BFE386108E0FEF747FE02463B69D31A00
:101C0800022B01D9032315E11E4B5B6F03F002037E
:101C1800002BF0D17B681B6803F00403002B00F055
:101C28009F800023FB75174B1B6C03F08053002B20
:101C38000FD10023FB60134A124B1B6C43F08053F7
:101C48001364104B1B6C03F08053FB60FB6801238B
:101C5800FB750F4B1B6803F48073002B20D10C4AD3
:101C68000B4B1B6843F480731360FEF70DFE38615D
:101C780010E0FEF709FE02463B69D31A022B09D988
:101C88000323D7E00038024000004742800E474255
:101C980000700040694B1B6803F48073002BE8D088
:101CA8007B689B68012B06D1654A654B1B6F43F027
:101CB800010313671CE07B689B68052B0CD1604A05
:101CC8005F4B1B6F43F0040313675D4A5C4B1B6F4C
:101CD80043F0010313670BE0594A594B1B6F23F07C
:101CE80001031367564A564B1B6F23F0040313670F
:101CF8007B689B68002B15D0FEF7C6FD38610AE0AB
:101D0800FEF7C2FD02463B69D31A41F2883293427C
:101D180001D903238EE04A4B1B6F03F00203002B0B
:101D2800EED014E0FEF7B0FD38610AE0FEF7ACFD36
:101D380002463B69D31A41F28832934201D9032300
:101D480078E03F4B1B6F03F00203002BEED1FB7DC5
:101D5800012B05D13A4A3A4B1B6C23F0805313648C
:101D68007B689B69002B64D0354B9B6803F00C03A0
:101D7800082B5CD07B689B69022B41D1314B002238
:101D88001A60FEF781FD386108E0FEF77DFD024626
:101D98003B69D31A022B01D903234BE0284B1B685C
:101DA80003F00073002BF0D125497B68DA697B6862
:101DB8001B6A1A437B685B6A9B011A437B689B6AB0
:101DC8005B08013B1B041A437B68DB6A1B06134351
:101DD8004B601C4B01221A60FEF756FD386108E083
:101DE800FEF752FD02463B69D31A022B01D90323A1
:101DF80020E0134B1B6803F00073002BF0D018E0B1
:101E0800104B00221A60FEF73FFD386108E0FEF72C
:101E18003BFD02463B69D31A022B01D9032309E093
:101E2800074B1B6803F00073002BF0D101E001237E
:101E380000E0002318461837BD4680BD00700040FA
:101E4800003802406000474280B584B000AF786037
:101E580039607B68002B01D10123CBE0674B1B68FD
:101E680003F00F023B689A420CD2644B3A68D2B234
:101E78001A70624B1B6803F00F023B689A4201D04C
:101E88000123B7E07B681B6803F00203002B20D016
:101E98007B681B6803F00403002B05D0584A584B95
:101EA8009B6843F4E05393607B681B6803F0080366
:101EB800002B05D0524A524B9B6843F46043936011
:101EC8004F494F4B9B6823F0F0027B689B68134394
:101ED8008B607B681B6803F00103002B45D07B688F
:101EE8005B68012B07D1464B1B6803F40033002BBA
:101EF8001AD101237EE07B685B68022B03D07B68E4
:101F08005B68032B08D13E4B1B6803F00073002B62
:101F180001D101236EE007E0394B1B6803F002038F
:101F2800002B01D1012365E03549354B9B6823F02F
:101F380003027B685B6813438B60FEF7A5FCF860BF
:101F48000AE0FEF7A1FC0246FB68D31A41F2883288
:101F5800934201D903234DE0294B9B6803F00C02FF
:101F68007B685B689B009A42EBD1244B1B6803F0AB
:101F78000F023B689A420CD9204B3A68D2B21A70C9
:101F88001E4B1B6803F00F023B689A4201D00123E5
:101F980030E07B681B6803F00403002B08D0184965
:101FA800174B9B6823F4E0527B68DB6813438B6014
:101FB8007B681B6803F00803002B09D01049104BFD
:101FC8009B6823F460427B681B69DB0013438B60CA
:101FD80000F01CF801460A4B9B6803F0F0031B094C
:101FE800084AD35C21FA03F3074A13600020FEF77E
:101FF80009FC002318461037BD4680BD003C02404E
:1020080000380240B8360008080000202DE9B04F1B
:1020180086B000AF0024FC6000247C610024BC6012
:1020280000243C61494CA46804F00C04042C06D03C
:10203800082C07D0002C7FD1454B3B617FE0454BF6
:102048003B617CE0414C646804F03F04FC603F4C19
:10205800646804F48004002C23D03C4B5A6847F68B
:10206800C07313409B091A464FF00003394901FB1E
:1020780003F0002101FB02F101443648A2FB0023D2
:1020880019440B46F9680C464FF0000510461946EE
:1020980022462B46FEF7C6F802460B4613467B61DE
:1020A8003CE02A4C656847F6C0742C40A409A04659
:1020B8004FF0000944464D464FEAC50B4BEA547BA6
:1020C8004FEAC40A54465D46690141EAD461600199
:1020D800001B61EB05018B0143EA90638201121A30
:1020E80063EB010318EB020849EB030942464B4630
:1020F80099027960796841EA9251796093023B606C
:10210800D7E9002310461946FB681A464FF000032A
:10211800FEF788F802460B4613467B610B4B5B685B
:1021280003F440331B0C01335B00BB607A69BB6866
:10213800B2FBF3F33B6102E0054B3B6100BF3B6937
:1021480018461837BD46BDE8B08F00BF00380240BA
:102158000024F40040787D0180B400AF034B1B6875
:102168001846BD465DF8047B704700BF0800002094
:1021780080B500AFFFF7F0FF0146054B9B6803F4FD
:10218800E0539B0A034AD35C21FA03F3184680BD47
:1021980000380240C836000880B500AFFFF7DCFF02
:1021A8000146054B9B6803F460435B0B034AD35C11
:1021B80021FA03F3184680BD00380240C8360008EB
:1021C80080B582B000AF78607B68002B01D1012315
:1021D8001DE07B6893F83D30DBB2002B06D17B68AD
:1021E800002283F83C20786801F060F87B680222BE
:1021F80083F83D207B681A687B68043310461946CB
:1022080000F02EF87B68012283F83D200023184651
:102218000837BD4680BD00BF80B485B000AF786088
:102228007B68022283F83D207B681B689B6803F06B
:102238000703FB60FB68062B07D07B681B687A687E
:102248001268126842F001021A607B68012283F862
:102258003D20002318461437BD465DF8047B7047BF
:1022680080B485B000AF786039607B681B68FB601C
:102278007B683F4A934213D07B68B3F1804F0FD0FD
:102288007B683C4A93420BD07B683B4A934207D019
:102298007B683A4A934203D07B68394A934208D113
:1022A800FB6823F07003FB603B685B68FA681343C4
:1022B800FB607B682E4A93422BD07B68B3F1804F3A
:1022C80027D07B682B4A934223D07B682A4A9342C3
:1022D8001FD07B68294A93421BD07B68284A9342C7
:1022E80017D07B68274A934213D07B68264A9342CB
:1022F8000FD07B68254A93420BD07B68244A9342CF
:1023080007D07B68234A934203D07B68224A9342D2
:1023180008D1FB6823F44073FB603B68DB68FA680C
:102328001343FB60FB6823F080023B685B6913433F
:10233800FB607B68FA681A603B689A687B68DA62B7
:102348003B681A687B689A627B68094A934203D0A3
:102358007B680B4A934203D13B681A697B681A630E
:102368007B6801225A611437BD465DF8047B7047CB
:10237800000001400004004000080040000C00403C
:102388000004014000400140004401400048014071
:1023980000180040001C00400020004080B485B0B8
:1023A80000AF786039607B6893F83C30012B01D12D
:1023B800022332E07B68012283F83C207B680222FA
:1023C80083F83D207B681B685B68FB607B681B6843
:1023D8009B68BB60FB6823F07003FB603B681B686D
:1023E800FA681343FB60BB6823F08003BB603B685B
:1023F8005B68BA681343BB607B681B68FA685A60FD
:102408007B681B68BA689A607B68012283F83D2064
:102418007B68002283F83C20002318461437BD4609
:102428005DF8047B704700BF80B582B000AF78606C
:102438007B68002B01D101233FE07B6893F839309A
:10244800DBB2002B06D17B68002283F8382078683D
:1024580000F076FF7B68242283F839207B681B68AC
:102468007A681268D26822F40052DA60786800F05C
:1024780063FA7B681B687A681268126922F49042D2
:102488001A617B681B687A681268526922F02A020E
:102498005A617B681B687A681268D26842F40052F5
:1024A800DA607B680022DA637B68202283F83920AF
:1024B8007B68202283F83A20002318460837BD4657
:1024C80080BD00BF80B588B000AF78607B681B68AE
:1024D8001B68FB617B681B68DB68BB617B681B68EA
:1024E8005B697B6100233B610023FB60FB6903F0B0
:1024F8000F033B613B69002B0DD1FB6903F02003FF
:10250800002B08D0BB6903F02003002B03D07868A8
:1025180000F090F9CAE03B69002B00F0AB807B69C2
:1025280003F00103002B05D1BB6903F49073002B62
:1025380000F0A080FB6903F00103002B0AD0BB69FF
:1025480003F48073002B05D07B68DB6B43F001023A
:102558007B68DA63FB6903F00403002B0AD07B690C
:1025680003F00103002B05D07B68DB6B43F002020C
:102578007B68DA63FB6903F00203002B0AD07B69EE
:1025880003F00103002B05D07B68DB6B43F00402EA
:102598007B68DA63FB6903F00803002B0AD07B69C8
:1025A80003F00103002B05D07B68DB6B43F00802C6
:1025B8007B68DA637B68DB6B002B5AD0FB6903F01E
:1025C8002003002B07D0BB6903F02003002B02D0A7
:1025D800786800F02FF97B681B685B6903F040039B
:1025E800002B14BF01230023DBB2FB607B68DB6B8D
:1025F80003F00803002B02D1FB68002B32D0786867
:1026080000F078F87B681B685B6903F04003002BD7
:1026180023D07B681B687A681268526922F04002EE
:102628005A617B685B6B002B13D07B685B6B214A1C
:102638001A657B685B6B1846FEF780FD0346002B26
:102648000FD07B685B6B1B6D7A68526B104698479E
:1026580007E0786800F044F80BE0786800F040F88C
:1026680007E006E0786800F03BF87B680022DA6350
:102678001CE01BE0FB6903F08003002B08D0BB695A
:1026880003F08003002B03D0786800F065F80DE0B4
:10269800FB6903F04003002B08D0BB6903F040033B
:1026A800002B03D0786800F0ADF800BF2037BD4696
:1026B80080BD00BF3927000880B483B000AF7860C0
:1026C8000C37BD465DF8047B704700BF80B483B00B
:1026D80000AF78600C37BD465DF8047B704700BFDB
:1026E80080B483B000AF78600C37BD465DF8047BDA
:1026F800704700BF80B483B000AF78607B681B6808
:102708007A681268D26822F49072DA607B681B6873
:102718007A681268526922F001025A617B682022A5
:1027280083F83A200C37BD465DF8047B704700BF3C
:1027380080B584B000AF78607B689B6BFB60FB68FA
:102748000022DA85FB680022DA84F868FFF7C8FF00
:102758001037BD4680BD00BF80B485B000AF78603B
:102768007B6893F83930DBB2212B43D17B689B68B7
:10277800B3F5805F19D17B681B6AFB607B681B68B7
:10278800FA681288C2F308025A607B681B69002B3A
:1027980005D17B681B6A9A1C7B681A620EE07B680D
:1027A8001B6A5A1C7B681A6208E07B681A687B6897
:1027B8001B6A581C796808621B7853607B68DB8C3D
:1027C8009BB2013B9BB27A681946D184002B0FD18A
:1027D8007B681B687A681268D26822F08002DA6027
:1027E8007B681B687A681268D26842F04002DA6037
:1027F800002300E0022318461437BD465DF8047B29
:10280800704700BF80B582B000AF78607B681B68F6
:102818007A681268D26822F04002DA607B68202267
:1028280083F839207868FFF747FF002318460837F0
:10283800BD4680BD80B584B000AF78607B6893F8F2
:102848003A30DBB2222B71D17B689B68B3F5805F8D
:1028580023D17B689B6AFB607B681B69002B0ED1C8
:102868007B681B685B689BB2C3F308039AB2FB687A
:102878001A807B689B6A9A1C7B689A6229E07B684D
:102888001B685B689BB2DBB29AB2FB681A807B68F4
:102898009B6A5A1C7B689A621BE07B681B69002B49
:1028A8000AD17B689B6A591C7A6891627A681268B7
:1028B8005268D2B21A700CE07B689B6A591C7A681D
:1028C80091627A6812685268D2B202F07F02D2B27C
:1028D8001A707B68DB8D9BB2013B9BB27A68194604
:1028E800D185002B20D17B681B687A681268D26872
:1028F80022F02002DA607B681B687A681268D26866
:1029080022F48072DA607B681B687A681268526900
:1029180022F001025A617B68202283F83A20786805
:10292800FFF7D4FE002302E0002300E0022318464C
:102938001037BD4680BD00BFF0B585B000AF7860E8
:102948007B681B687A681268126922F440517A68B9
:10295800D2680A431A617B689A687B681B691A43C4
:102968007B685B691A437B68DB691343FB607B68A0
:102978001A687B681B68DB6823F4164323F00C0392
:10298800F9680B43D3607B681B687A6812685269E0
:1029980022F440717A6892690A435A617B68DB695C
:1029A800B3F5004F40F0E4807B681B68AB4A934264
:1029B80004D07B681B68AA4A93426CD17B681C6868
:1029C800FFF7EAFB024613469B0013449A001A4499
:1029D8007B685B685B00B2FBF3F3A24AA2FB0323AC
:1029E8005B091D01FFF7D8FB024613469B00134401
:1029F8009A001A447B685B685B00B2FBF3F6FFF74A
:102A0800CBFB024613469B0013449A001A447B688A
:102A18005B685B00B2FBF3F3924AA2FB03235B09FA
:102A2800642202FB03F3F31ADB0032338D4AA2FB64
:102A380003235B0903F0F8035B001D44FFF7ACFBBD
:102A4800024613469B0013449A001A447B685B684D
:102A58005B00B2FBF3F6FFF79FFB024613469B00B1
:102A680013449A001A447B685B685B00B2FBF3F37B
:102A78007C4AA2FB03235B09642202FB03F3F31ADB
:102A8800DB003233774AA2FB03235B0903F0070319
:102A98002B44A36053E17B681C68FFF769FB02467F
:102AA80013469B0013449A001A447B685B685B00DA
:102AB800B2FBF3F36B4AA2FB03235B091D01FFF78B
:102AC80057FB024613469B0013449A001A447B683E
:102AD8005B685B00B2FBF3F6FFF74AFB024613465E
:102AE8009B0013449A001A447B685B685B00B2FB46
:102AF800F3F35C4AA2FB03235B09642202FB03F3A2
:102B0800F31ADB003233574AA2FB03235B0903F0B5
:102B1800F8035B001D44FFF72BFB024613469B009E
:102B280013449A001A447B685B685B00B2FBF3F6B7
:102B3800FFF71EFB024613469B0013449A001A44F3
:102B48007B685B685B00B2FBF3F3464AA2FB032396
:102B58005B09642202FB03F3F31ADB003233414AB8
:102B6800A2FB03235B0903F007032B44A360E6E001
:102B78007B681B68394A934204D07B681B68384AD3
:102B8800934271D17B681C68FFF706FB0246134627
:102B98009B0013449A001A447B685B689B00B2FB55
:102BA800F3F3304AA2FB03235B091D01FFF7F4FA94
:102BB800024613469B0013449A001A447B685B68DC
:102BC8009B00B2FBF3F6FFF7E7FA024613469B00B9
:102BD80013449A001A447B685B689B00B2FBF3F3CA
:102BE800204AA2FB03235B09642202FB03F3F31AC6
:102BF8001B0132331B4AA2FB03235B0903F0F003DA
:102C08001D44FFF7C9FA024613469B0013449A0075
:102C18001A447B685B689B00B2FBF3F6FFF7BCFACB
:102C2800024613469B0013449A001A447B685B686B
:102C38009B00B2FBF3F30B4AA2FB03235B0964225C
:102C480002FB03F3F31A1B013233064AA2FB0323E8
:102C58005B0903F00F032B44A36070E000100140F0
:102C6800001401401F85EB517B681C68FFF780FA50
:102C7800024613469B0013449A001A447B685B681B
:102C88009B00B2FBF3F32F4AA2FB03235B091D0150
:102C9800FFF76EFA024613469B0013449A001A4443
:102CA8007B685B689B00B2FBF3F6FFF761FA0246AC
:102CB80013469B0013449A001A447B685B689B0088
:102CC800B2FBF3F31F4AA2FB03235B09642202FB56
:102CD80003F3F31A1B0132331A4AA2FB03235B09DD
:102CE80003F0F0031D44FFF743FA024613469B0026
:102CF80013449A001A447B685B689B00B2FBF3F6A6
:102D0800FFF736FA024613469B0013449A001A440A
:102D18007B685B689B00B2FBF3F30A4AA2FB0323C0
:102D28005B09642202FB03F3F31A1B013233054AE1
:102D3800A2FB03235B0903F00F032B44A3601437A2
:102D4800BD46F0BD1F85EB5180B582B000AF0023B2
:102D58003B6000237B600E4B0E4A1A600C48FDF75F
:102D6800ABFE0346002B01D000F0D4F904233B60EE
:102D780000237B603B46064819460022FDF7F8FF12
:102D88000346002B01D000F0C5F90837BD4680BDC9
:102D98002C0000200074004080B58AB000AF786035
:102DA80007F1140300221A60043300221A60043366
:102DB80000221A60043300221A60043300221A60C9
:102DC80004337B681B682F4A934258D100233B6128
:102DD8002D4A2D4B1B6C43F0005313642A4B1B6C7C
:102DE80003F000533B613B690023FB60264A264BF6
:102DF8001B6B43F001031363234B1B6B03F00103AD
:102E0800FB60FB6810237B610323BB610023FB612C
:102E180007F114031D481946FEF72AFC1C4B1D4AEE
:102E28001A601B4B4FF060625A60194B40229A603F
:102E3800174B0022DA60164B4FF480621A61144B6C
:102E48004FF400625A61124B4FF400529A61104BD2
:102E58004FF48072DA610E4B00221A620C4B00228A
:102E68005A620B48FEF758F80346002B01D000F0D1
:102E780051F97B68064A9A60054A7B68936328374C
:102E8800BD4680BD0074004000380240000002408A
:102E9800400000208860024080B582B000AF002367
:102EA8007B600B4A0A4B1B6B43F400131363084BFC
:102EB8001B6B03F400137B607B6810200021002249
:102EC800FDF7C4FD1020FDF7DDFD0837BD4680BDC8
:102ED8000038024080B58AB000AF07F11403002221
:102EE8001A60043300221A60043300221A60043383
:102EF80000221A60043300221A60043300233B6165
:102F0800264A264B1B6B43F080031363234B1B6B32
:102F180003F080033B613B690023FB601F4A1F4BA2
:102F28001B6B43F0010313631C4B1B6B03F0010382
:102F3800FB60FB680023BB60184A184B1B6B43F00F
:102F480002031363154B1B6B03F00203BB60BB68E2
:102F580000237B60114A114B1B6B43F0080313637A
:102F68000E4B1B6B03F008037B607B680C484FF427
:102F780070410022FEF712FD4FF470437B6101237C
:102F8800BB610023FB6100233B6207F11403044883
:102F98001946FEF76DFB2837BD4680BD0038024054
:102FA800000C024080B582B002AFFDF709FC00F0CA
:102FB80021F8FFF78FFFFFF76FFF00F097F9FFF792
:102FC800C3FE00F03FF90848FFF726F9074800213B
:102FD800FDF794FD0023009304480021044A4FF4B0
:102FE8008073FDF7F3FDFEE7A00000202C00002011
:102FF800B834000880B594B000AF07F12003002270
:103008001A60043300221A60043300221A60043361
:1030180000221A60043300221A60043300221A6066
:10302800043300221A60043300221A600433002299
:103038001A60043300221A60043300221A60043331
:1030480000221A60043307F10C0300221A600433CB
:1030580000221A60043300221A60043300221A6026
:10306800043300221A6004330023BB60274A274B2D
:103078001B6C43F080531364244B1B6C03F0805388
:10308800BB60BB6800237B60214A214B1B6843F46B
:10309800804313601E4B1B6803F480437B607B688E
:1030A80002233B620123FB6210233B630223BB63C1
:1030B8000023FB6308233B64A8237B640223BB64CF
:1030C8000423FB6407F120031846FEF77FFC034640
:1030D800002B01D000F01EF80F23FB6002233B6198
:1030E80000237B614FF4A053BB614FF48053FB6115
:1030F80007F10C0318460521FEF7A6FE0346002B30
:1031080001D000F007F85037BD4680BD00380240B6
:103118000070004080B400AFBD465DF8047B704786
:1031280080B483B000AF00237B600F4A0E4B5B6C0A
:1031380043F4804353640C4B5B6C03F480437B6023
:103148007B6800233B60084A074B1B6C43F08053A5
:103158001364054B1B6C03F080533B603B680C37D2
:10316800BD465DF8047B70470038024080B400AF6C
:10317800BD465DF8047B704780B400AFFEE700BF32
:1031880080B400AFFEE700BF80B400AFFEE700BF29
:1031980080B400AFFEE700BF80B400AFBD465DF865
:1031A800047B704780B400AFBD465DF8047B704770
:1031B80080B400AFBD465DF8047B704780B500AFB2
:1031C800FDF750FB80BD00BF80B500AF0148FDF79B
:1031D800D7FF80BD4000002080B500AF0148FFF751
:1031E80071F980BDE000002080B400AF124A124B94
:1031F8001B6843F0010313600F4B00229A600E4ACC
:103208000D4B1B6823F0847323F4803313600A4B3F
:103218000A4A5A60084A084B1B6823F48023136043
:10322800054B0022DA60064B4FF000629A60BD46FB
:103238005DF8047B704700BF00380240103000245E
:1032480000ED00E080B582B000AF00233B600023B2
:103258007B60144B144A1A60124B00225A60114BBF
:1032680000229A600F4B40F24712DA600D4B0022A1
:103278009A610C48FEF7A4FF0346002B01D0FFF724
:1032880049FF20233B6000237B603B4605481946E5
:10329800FFF784F80346002B01D0FFF73BFF083700
:1032A800BD4680BDA00000200010004080B485B05D
:1032B80000AF78607B681B680A4A93420DD10023EF
:1032C800FB60094A084B1B6C43F010031364064B60
:1032D8001B6C03F01003FB60FB681437BD465DF8F8
:1032E800047B7047001000400038024080B500AFF2
:1032F800114B124A1A60104B4FF416525A600E4B7B
:1033080000229A600C4B0022DA600B4B00221A61F3
:10331800094B0C225A61084B00229A61064B4FF464
:103328000042DA610448FFF77FF80346002B01D01A
:10333800FFF7F0FE80BD00BFE0000020004800401D
:1033480080B58AB000AF786007F1140300221A60D4
:10335800043300221A60043300221A600433002266
:103368001A60043300221A6004337B681B681D4A04
:10337800934234D100233B611B4A1B4B1B6C43F423
:1033880080231364184B1B6C03F480233B613B6957
:103398000023FB60144A144B1B6B43F002031363B6
:1033A800114B1B6B03F00203FB60FB684FF4406397
:1033B8007B610223BB610123FB6103233B6207237B
:1033C8007B6207F1140309481946FEF751F92720D3
:1033D80000210022FDF73AFB2720FDF753FB283791
:1033E800BD4680BD0048004000380240000402404D
:1033F800DFF834D0002103E00C4B5B584350043114
:103408000B480C4B42189A42F6D30B4A02E00023B1
:1034180042F8043B094B9A42F9D3FFF7E5FE00F066
:1034280011F8FFF7BFFD704700000220E0360008E2
:10343800000000200C0000200C00002020010020CB
:10344800FEE7000070B50E4B0E4CE41AA4100025E0
:103458001E46A54204D056F8253098470135F8E7AE
:1034680000F016F8084C094BE41AA41000251E4673
:10347800A54204D056F8253098470135F8E770BDC5
:10348800D8360008D8360008DC360008D8360008D8
:10349800F8B500BFF8BC08BC9E467047F8B500BF39
:0834A800F8BC08BC9E46704709
:1034B0000006101600061016000010002000300054
:1034C000410051006100710081009100A100B10034
:1034D000C200D200E200F200020112012201320118
:1034E000430153016301730183019301A301B301FC
:1034F000C401D401E401F4010402140224023402E0
:10350000450255026502750285029502A502B502C3
:10351000C602D602E602F6020603160326033603A7
:10352000470357036703770387039703A703B7038B
:10353000C803D803E803F80308041804280438046F
:10354000490459046904790489049904A904B90453
:10355000CA04DA04EA04FA040A051A052A053A0537
:103560004B055B056B057B058B059B05AB05BB051B
:10357000CC05DC05EC05FC050C061C062C063C06FF
:103580004D065D066D067D068D069D06AD06BD06E3
:10359000CE06DE06EE06FE060E071E072E073E07C7
:1035A0004F075F076F077F078F079F07AF07BF07AB
:1035B000D007E007F00700080008F007E007D00791
:1035C000BF07AF079F078F077F076F075F074F078B
:1035D0003E072E071E070E07FE06EE06DE06CE0687
:1035E000BD06AD069D068D067D066D065D064D0683
:1035F0003C062C061C060C06FC05EC05DC05CC057F
:10360000BB05AB059B058B057B056B055B054B057A
:103610003A052A051A050A05FA04EA04DA04CA0476
:10362000B904A90499048904790469045904490472
:103630003804280418040804F803E803D803C8036E
:10364000B703A7039703870377036703570347036A
:103650003603260316030603F602E602D602C60266
:10366000B502A50295028502750265025502450262
:103670003402240214020402F401E401D401C4015E
:10368000B301A3019301830173016301530143015A
:103690003201220112010201F200E200D200C20056
:1036A000B100A10091008100710061005100410052
:1036B00030002000100000000000000000000000AA
:1036C00001020304060708090000000001020304C8
:0836D000F0CBFF7F01000000B8
:0436D800F5010008F0
:0436DC00CD01000814
:0C36E00010000000010000000024F400B5
:04000005080033F9C3
:00000001FF
